:100000000C942A000C9447000C9447000C94470071
:100010000C9447000C9447000C9447000C94470044
:100020000C9447000C9447000C9447000C944A032E
:100030000C9447000C946F030C9447000C944700F9
:100040000C9447000C9447000C9447000C94470014
:100050000C94470011241FBECFE5D8E0DEBFCDBF12
:1000600010E0A0E6B0E0E2E0FEE002C005900D92F4
:10007000AA37B107D9F720E0AAE7B0E001C01D9286
:10008000A43EB207E1F70E9449000C94FF060C94CD
:100090000000CF93DF9300D000D01F92CDB7DEB722
:1000A0000E9462000E940E010E949103FE0131969F
:1000B00085E0DF011D928A95E9F7CE0101960E9445
:1000C000E903FBCF41E06FE087E390E00E943B0350
:1000D00041E06FE088E390E00E942C0340E060E79D
:1000E00087E390E00E943B0341E060E788E390E013
:1000F0000E942C030895CF93DF93D8E02BC060E0DB
:100100008D2F0E94BB01CCE01EC08C2F0E94E70205
:10011000811118C08C2F0E94E7028823D9F32D2F5C
:1001200030E028503109EC2FF0E0CF010C97F901B5
:10013000EE0FFF1FE20FF31FE05AFF4FE80FF91F0A
:1001400080810BC0CF5FCF3000F361E08D2F0E9424
:10015000BB01DF5FDC3098F280E0DF91CF91089542
:1001600061E083E00E94BB0187EC90E00197F1F72A
:1001700000C0000060E083E00E94BB0187EC90E0DB
:100180000197F1F700C000000895CF93C82F40E019
:1001900060EF8BE390E00E942C036C2F607F41E0C6
:1001A0008BE390E00E942C030E94B00040E060EFDF
:1001B0008BE390E00E942C0380E1C89FB0011124E2
:1001C00041E08BE390E00E942C030E94B00087EC9A
:1001D00090E00197F1F700C00000CF910895CF9310
:1001E000C82F60E082E00E94BB018C2F0E94C500F6
:1001F000CF91089581E00E94EF008FE39FE1019786
:10020000F1F700C00000089582E00E94EF008FE344
:100210009FE10197F1F700C00000089541E060EF11
:100220008AE390E00E943B0341E06CE08AE390E0C7
:100230000E943B032FEF83EF91E0215080409040DC
:10024000E1F700C000000E94040186E00E94EF0078
:100250008CE00E94EF0080E10E94EF0088E20E94A3
:10026000EF000E94FA000895CF93C82F61E082E06A
:100270000E94BB018C2F0E94C500CF9108950E945F
:10028000340108950F931F93CF938C01C0E003C0F6
:100290000E943F01CF5FF801EC0FF11D80818111B9
:1002A000F7CFCF911F910F910895813029F48FE7F7
:1002B000860F0E94EF000895823021F48FEB860FA5
:1002C0000E94EF000895CF93C42F0E9455018C2FF8
:1002D0000E943F01CF910895CF93DF93EA010E94DE
:1002E0005501CE010E944201DF91CF9108950F93F5
:1002F0001F93CF93DF93CDB7DEB72B970FB6F8944C
:10030000DEBF0FBECDBF8E010F5F1F4F2BE0F80188
:1003100011922A95E9F79F938F937F936F9381E7CB
:1003200090E09F938F931F930F930E941504C80131
:100330000E9442010FB6F894DEBF0FBECDBF2B96D0
:100340000FB6F894DEBF0FBECDBFDF91CF911F91E6
:100350000F910895CF92DF92EF92FF9269017A0197
:100360000E945501C701B6010E947701FF90EF90EE
:10037000DF90CF9008958830F8F4613069F44BB382
:1003800021E030E0B90102C0660F771F8A95E2F7DD
:10039000CB01842B8BBB0895611182C04BB321E04C
:1003A00030E0B90102C0660F771F8A95E2F7CB01F2
:1003B000809584238BBB089598EF980F983018F59B
:1003C000613079F448B390E0089721E030E0B9015A
:1003D00002C0660F771F8A95E2F7CB01842B88BB9A
:1003E000089561115DC048B390E0089721E030E0C6
:1003F000B90102C0660F771F8A95E2F7CB0180959D
:10040000842388BB089590EF980F983018F56130D9
:1004100079F445B390E0409721E030E0B90102C0A3
:10042000660F771F8A95E2F7CB01842B85BB089571
:10043000611136C045B390E0409721E030E0B9014A
:1004400002C0660F771F8A95E2F7CB01809584235F
:1004500085BB089598EE980F983010F5613079F4C7
:1004600042B390E0489721E030E0B90102C0660F46
:10047000771F8A95E2F7CB01842B82BB0895611127
:100480000FC042B390E0489721E030E0B90102C0CC
:10049000660F771F8A95E2F7CB018095842382BB94
:1004A00008958830F8F4613069F44AB321E030E00F
:1004B000B90102C0660F771F8A95E2F7CB01842B42
:1004C0008ABB0895611182C04AB321E030E0B901CE
:1004D00002C0660F771F8A95E2F7CB0180958423CF
:1004E0008ABB089598EF980F983018F5613079F429
:1004F00047B390E0089721E030E0B90102C0660FF1
:10050000771F8A95E2F7CB01842B87BB0895611191
:100510005DC047B390E0089721E030E0B90102C028
:10052000660F771F8A95E2F7CB018095842387BBFE
:10053000089590EF980F983018F5613079F444B32E
:1005400090E0409721E030E0B90102C0660F771FCC
:100550008A95E2F7CB01842B84BB0895611136C0E4
:1005600044B390E0409721E030E0B90102C0660F4B
:10057000771F8A95E2F7CB018095842384BB089589
:1005800098EE980F983010F5613079F441B390E00F
:10059000489721E030E0B90102C0660F771F8A95C5
:1005A000E2F7CB01842B81BB089561110FC041B3E9
:1005B00090E0489721E030E0B90102C0660F771F54
:1005C0008A95E2F7CB018095842381BB089588301A
:1005D00058F429B330E0A90102C0559547958A9592
:1005E000E2F7CA018170089598EF980F983070F47F
:1005F00096B3282F30E028503109892F90E002C0AF
:10060000959587952A95E2F78170089590EF980F58
:10061000983070F493B3282F30E020513109892F9E
:1006200090E002C0959587952A95E2F7817008952C
:1006300098EE980F983070F490B3282F30E028513E
:100640003109892F90E002C0959587952A95E2F7A8
:100650008170089580E00895413029F4FC012081E3
:10066000622B60830895411105C0FC0120816095D3
:10067000622360830895413029F4FC012081622BBC
:1006800060830895411105C0FC01208160956223BB
:10069000608308951F920F920FB60F9211248F93CB
:1006A0009F93AF93BF9380917A0090917B00A0912C
:1006B0007C00B0917D000196A11DB11D80937A0050
:1006C00090937B00A0937C00B0937D00BF91AF918D
:1006D0009F918F910F900FBE0F901F9018951F92B2
:1006E0000F920FB60F9211248F939F93EF93FF9366
:1006F00080917E00E82FF0E09CB1E058FF4F90839E
:100700008F5F80937E00853019F410928600F894F4
:10071000FF91EF919F918F910F900FBE0F901F90BF
:10072000189561E084E10E94510261E08FE00E942F
:1007300051020895CF93DF93EC01BC018CE690E069
:100740000E940C04892BA1F461E084E10E94BB01AA
:100750002FEF8BE792E9215080409040E1F700C0F5
:10076000000060E084E10E94BB0110927F002EC077
:1007700020917F0030E040E050E061E082E00E94A4
:10078000AA0120917F002430A0F061E08FE00E9458
:10079000BB012FEF8BE792E9215080409040E1F7B9
:1007A00000C0000060E08FE00E94BB0110927F005B
:1007B0000DC02F5F20937F0030E040E050E066E006
:1007C00082E00E94AA01CE010E94E903DF91CF914D
:1007D00008950F931F93CF938C0144E750E061E09D
:1007E00081E00E946C01C0E00EC00E947B00882363
:1007F00051F0F801EC0FF11D8083CF5F482F6C2F73
:1008000081E00E946301C43080F3C8010E949A0312
:10081000CF911F910F910895FB01DC018D91019003
:1008200080190110D9F3990B0895AEE0B0E0EBE127
:10083000F4E00C94D6060D891E8986E08C831A8319
:1008400009838FEF9FE79E838D83AE01475E5F4FE5
:100850006F89788DCE0101960E943704EF81F8856B
:10086000E00FF11F10822E96E4E00C94F206ABE04C
:10087000B0E0EDE3F4E00C94C8066C017B018A0162
:10088000FC0117821682838181FFCCC1CE010196C3
:100890003C01F6019381F70193FD859193FF8191CE
:1008A0007F01882309F4BAC1853239F493FD85911B
:1008B00093FF81917F01853229F4B60190E00E9477
:1008C0002E06E7CF912C212C312CFFE1F315D8F027
:1008D0008B3279F038F4803279F08332A1F4232D11
:1008E00020611DC08D3261F0803369F4232D2160B9
:1008F00016C0832D8260382EE32DE4603E2E2AC080
:10090000F32DF8601DC037FC2DC020ED280F2A30D4
:1009100040F08E32B9F436FC81C1232D2064322E92
:1009200019C036FE06C08AE0989E200D1124922E32
:1009300011C0EAE02E9E200D1124222EF32DF0622C
:100940003F2E08C08C3621F4832D8068382E02C0DB
:10095000883641F4F70193FD859193FF81917F01E2
:100960008111B3CF982F9F7D9554933028F40C5F5D
:100970001F4F9FE399830DC0833631F0833771F0A9
:10098000833509F059C021C0F801808189830E5F49
:100990001F4F88248394912C530113C02801F2E047
:1009A0004F0E511CF801A080B18036FE03C0692DA6
:1009B00070E002C06FEF7FEFC5010E9423064C017B
:1009C0008201F32DFF773F2E16C0280122E0420E50
:1009D000511CF801A080B18036FE03C0692D70E083
:1009E00002C06FEF7FEFC5010E9418064C01F32D86
:1009F000F0683F2E820133FC1BC0822D90E08816E8
:100A00009906B0F4B60180E290E00E942E062A9486
:100A1000F4CFF50137FC859137FE81915F01B60176
:100A200090E00E942E0621102A9421E0821A91085B
:100A30008114910471F7E8C0843611F0893641F5CC
:100A4000F80137FE07C060817181828193810C5F5C
:100A50001F4F08C060817181072E000C880B990B15
:100A60000E5F1F4FF32DFF763F2E97FF09C0909525
:100A70008095709561957F4F8F4F9F4FF0683F2E07
:100A80002AE030E0A3010E946A06882E861845C03D
:100A9000853731F4232D2F7EB22E2AE030E025C099
:100AA000932D997FB92E8F36C1F018F4883579F0DF
:100AB000B5C0803719F0883721F0B0C0E92FE06168
:100AC000BE2EB4FE0DC0FB2DF460BF2E09C034FE57
:100AD0000AC0292F2660B22E06C028E030E005C0EB
:100AE00020E130E002C020E132E0F801B7FE07C0AB
:100AF00060817181828193810C5F1F4F06C060818C
:100B0000718180E090E00E5F1F4FA3010E946A0692
:100B1000882E8618FB2DFF773F2E36FE0DC0232D25
:100B20002E7FA22E891458F434FE0BC032FC09C06B
:100B3000832D8E7EA82E05C0B82CA32C03C0B82C04
:100B400001C0B92CA4FE0FC0FE01E80DF11D80818B
:100B5000803321F49A2D997EA92E09C0A2FE06C0E9
:100B6000B394B39404C08A2D867809F0B394A3FC9F
:100B700011C0A0FE06C0B21488F4280C922C9B1859
:100B80000EC0B21460F4B60180E290E00E942E061E
:100B9000B394F7CFB21418F42B1802C0982C212C60
:100BA000A4FE10C0B60180E390E00E942E06A2FED3
:100BB00017C0A1FC03C088E790E002C088E590E080
:100BC000B6010CC08A2D867859F0A1FE02C08BE2D6
:100BD00001C080E2A7FC8DE2B60190E00E942E06E3
:100BE000891438F4B60180E390E00E942E069A94AE
:100BF000F7CF8A94F301E80DF11D8081B60190E0F2
:100C00000E942E068110F5CF222009F442CEB601B3
:100C100080E290E00E942E062A94F6CFF6018681AB
:100C2000978102C08FEF9FEF2B96E2E10C94E406D0
:100C3000FC010590615070400110D8F780959095A7
:100C40008E0F9F1F0895FC016150704001900110AC
:100C5000D8F7809590958E0F9F1F08950F931F933F
:100C6000CF93DF93FB01238121FD03C08FEF9FEF23
:100C70002CC022FF16C0468157812481358142173E
:100C8000530744F4A081B1819D012F5F3F4F318311
:100C900020838C93268137812F5F3F4F37832683B4
:100CA00014C08B01EC01FB010084F185E02D099556
:100CB000892BE1F6D80116968D919C911797019694
:100CC00017969C938E931697CE01DF91CF911F912B
:100CD0000F910895FA01AA27283051F1203181F1AE
:100CE000E8946F936E7F6E5F7F4F8F4F9F4FAF4F34
:100CF000B1E03ED0B4E03CD0670F781F891F9A1F47
:100D0000A11D680F791F8A1F911DA11D6A0F711DFA
:100D1000811D911DA11D20D009F468943F912AE006
:100D2000269F11243019305D3193DEF6CF010895EE
:100D3000462F4770405D4193B3E00FD0C9F7F6CF1F
:100D4000462F4F70405D4A3318F0495D31FD4052E7
:100D5000419302D0A9F7EACFB4E0A695979587957D
:100D600077956795BA95C9F700976105710508955C
:100D70009B01AC010A2E0694579547953795279508
:100D8000BA95C9F7620F731F841F951FA01D0895A0
:100D90002F923F924F925F926F927F928F929F928B
:100DA000AF92BF92CF92DF92EF92FF920F931F9379
:100DB000CF93DF93CDB7DEB7CA1BDB0B0FB6F8942A
:100DC000DEBF0FBECDBF09942A88398848885F846A
:100DD0006E847D848C849B84AA84B984C884DF80DB
:100DE000EE80FD800C811B81AA81B981CE0FD11DBF
:100DF0000FB6F894DEBF0FBECDBFED010895F89495
:020E0000FFCF22
:100E02003132333435363738392A302331323334BC
:0A0E120000257500202020200000BC
:00000001FF
