:100000000C942A000C9466000C9447000C94470052
:100010000C9447000C9447000C9447000C94470044
:100020000C9447000C9447000C9447000C94C604B1
:100030000C9447000C9447000C9447000C94470024
:100040000C9447000C9447000C9447000C94470014
:100050000C94470011241FBECFE5D8E0DEBFCDBF12
:1000600010E0A0E6B0E0E6E3F3E102C005900D92F7
:10007000AA3DB107D9F720E0AAEDB0E001C01D927A
:10008000A03EB207E1F70E9449000C9499090C9434
:10009000000080E895E20E94EB0487E690E00E9471
:1000A00030052FEF83ED90E3215080409040E1F741
:1000B00000C000008CE690E00E9466050E94A10549
:1000C00078940E949C050E940306FDCF1F920F9218
:1000D0000FB60F9211242F933F934F935F936F931B
:1000E0007F938F939F93AF93BF93EF93FF93E09191
:1000F000DA00F091DB000995FF91EF91BF91AF918C
:100100009F918F917F916F915F914F913F912F912F
:100110000F900FBE0F901F90189561E082E10E9432
:10012000CD0360E082E10E9437032FEF89EF90E07A
:10013000215080409040E1F700C0000061E082E182
:100140000E9437030895CF93DF93D0E0C0E01BC037
:1001500082E10E9463048823D9F380EA8A95F1F74B
:1001600082E10E946304811102C0CC0F06C08C2F73
:1001700090E0880F991FC82FC16082E10E9463043C
:100180008111FBCFDF5FD83018F38C2FDF91CF9137
:10019000089560E082E10E94CD0382E10E94630441
:1001A0008111FBCF82E10E9463048823D9F382E1AD
:1001B0000E9463048111FBCF08954F925F926F926A
:1001C0007F928F929F92AF92BF92CF92DF92EF92E7
:1001D000FF920F931F93CF93DF93CDB7DEB7669750
:1001E0000FB6F894DEBF0FBECDBF3C015B014A01E4
:1001F000422E532E8EE290E09A8389838AE0FE019C
:100200003396DF01982F1D929A95E9F73A96DF0110
:100210001D928A95E9F7772334F4E894B7F88DE2D4
:10022000FA0181934F019501ADECBCEC0E9495065B
:100230006C01D694C794D694C794D694C794DF9291
:10024000CF9208E710E01F930F939F928F920E9426
:10025000AF069301ADECBCEC0E9495067C01F694D0
:10026000E794F694E794F694E794FF92EF921F9345
:100270000F935F924F920E94AF06C601880F991F9D
:10028000CC0CDD1CCC0CDD1CCC0CDD1CC80ED91E2E
:10029000AC18BD08BF92AF921F930F936E01F3E0AD
:1002A000CF0ED11CDF92CF920E94AF06C701880FFC
:1002B000991FEE0CFF1CEE0CFF1CEE0CFF1CE80E51
:1002C000F91E6E187F087F926F921F930F938E0115
:1002D000035F1F4F1F930F930E94AF06BE016F5F16
:1002E0007F4F842D952D0E94A406BE016F5F7F4F26
:1002F000C4010E94A406B801842D952D0E94A40675
:10030000B601C4010E94A4060FB6F894DEBF0FBE6A
:10031000CDBF66960FB6F894DEBF0FBECDBFDF919E
:10032000CF911F910F91FF90EF90DF90CF90BF90F2
:10033000AF909F908F907F906F905F904F900895B7
:10034000DF92EF92FF920F931F93CF93DF937C0185
:100350008B010E948D000E94C9000E94A300D82F2B
:100360000E94A300D82E0E94A300C82F0E94A300C1
:10037000ED2FF0E0FE2FEE276C2F70E0762F662732
:10038000682B9701A801CF018D290E94DD0081E033
:10039000DF91CF911F910F91FF90EF90DF90089523
:1003A00041E06FE087E390E00E94B70441E06FE036
:1003B00088E390E00E94A80440E060E787E390E0D3
:1003C0000E94B70441E060E788E390E00E94A8043F
:1003D000089561E083E00E94370387EC90E0019785
:1003E000F1F700C0000060E083E00E94370387EC73
:1003F00090E00197F1F700C000000895CF93C82F57
:1004000040E060EF8BE390E00E94A8046C2F607FD7
:1004100041E08BE390E00E94A8040E94E90140E0E3
:1004200060EF8BE390E00E94A80480E1C89FB001D8
:10043000112441E08BE390E00E94A8040E94E901AE
:1004400087EC90E00197F1F700C00000CF9108958C
:10045000CF93C82F60E082E00E9437038C2F0E9468
:10046000FE01CF91089581E00E9428028FE39FE171
:100470000197F1F700C00000089582E00E94280271
:100480008FE39FE10197F1F700C00000089541E07C
:1004900060EF8AE390E00E94B70441E06CE08AE3F9
:1004A00090E00E94B7042FEF83EF91E0215080404D
:1004B0009040E1F700C000000E943D0286E00E94EB
:1004C00028028CE00E94280280E10E94280288E233
:1004D0000E9428020E9433020895CF93C82F61E042
:1004E00082E00E9437038C2F0E94FE01CF91089575
:1004F0000E946D0208950F931F93CF938C01C0E06B
:1005000003C00E947802CF5FF801EC0FF11D8081DB
:100510008111F7CFCF911F910F910895813029F468
:100520008FE7860F0E9428020895823029F48FEB0E
:10053000860F0E9428020895833029F48FE8860FE1
:100540000E9428020895843021F48FEC860F0E94C7
:1005500028020895CF93DF93EA010E948E02CE0114
:100560000E947B02DF91CF9108950F931F93CF9349
:10057000DF93CDB7DEB72B970FB6F894DEBF0FBE73
:10058000CDBF8E010F5F1F4F2BE0F80111922A950E
:10059000E9F79F938F937F936F9388E790E09F9302
:1005A0008F931F930F930E94AF06C8010E947B0296
:1005B0000FB6F894DEBF0FBECDBF2B960FB6F894E2
:1005C000DEBF0FBECDBFDF91CF911F910F91089578
:1005D0009093DB008093DA0008959BB721E030E030
:1005E000082E02C0220F331F0A94E2F7292B2BBFDB
:1005F0008630A1F08730B1F08530E1F484B7462F22
:10060000417050E0002456954795079456954795BC
:100610000794542F402D482B44BF089585B7682B6D
:1006200065BF089585B770E0660F771F660F771F67
:10063000682B65BF089541E060E88FE590E00E9477
:10064000A804089587B1806487B986B1876886B9A0
:10065000089597B1907E97B997B1892B87B986B1E4
:10066000806486B93699FECF84B195B108958830FB
:10067000F8F4613069F44BB321E030E0B90102C015
:10068000660F771F8A95E2F7CB01842B8BBB089509
:10069000611182C04BB321E030E0B90102C0660FA6
:1006A000771F8A95E2F7CB01809584238BBB089551
:1006B00098EF980F983018F5613079F448B390E0CE
:1006C000089721E030E0B90102C0660F771F8A95D4
:1006D000E2F7CB01842B88BB089561115DC048B35C
:1006E00090E0089721E030E0B90102C0660F771F63
:1006F0008A95E2F7CB018095842388BB089590EF1B
:10070000980F983018F5613079F445B390E0409730
:1007100021E030E0B90102C0660F771F8A95E2F749
:10072000CB01842B85BB0895611136C045B390E0A1
:10073000409721E030E0B90102C0660F771F8A952B
:10074000E2F7CB018095842385BB089598EE980F3E
:10075000983010F5613079F442B390E0489721E089
:1007600030E0B90102C0660F771F8A95E2F7CB012E
:10077000842B82BB089561110FC042B390E048976B
:1007800021E030E0B90102C0660F771F8A95E2F7D9
:10079000CB018095842382BB08958830F8F46130C2
:1007A00069F44AB321E030E0B90102C0660F771F57
:1007B0008A95E2F7CB01842B8ABB0895611182C030
:1007C0004AB321E030E0B90102C0660F771F8A9575
:1007D000E2F7CB01809584238ABB089598EF980FA8
:1007E000983018F5613079F447B390E0089721E02C
:1007F00030E0B90102C0660F771F8A95E2F7CB019E
:10080000842B87BB089561115DC047B390E00897C2
:1008100021E030E0B90102C0660F771F8A95E2F748
:10082000CB018095842387BB089590EF980F983073
:1008300018F5613079F444B390E0409721E030E05E
:10084000B90102C0660F771F8A95E2F7CB01842BAE
:1008500084BB0895611136C044B390E0409721E015
:1008600030E0B90102C0660F771F8A95E2F7CB012D
:100870008095842384BB089598EE980F983010F5E6
:10088000613079F441B390E0489721E030E0B9015C
:1008900002C0660F771F8A95E2F7CB01842B81BBDC
:1008A000089561110FC041B390E0489721E030E016
:1008B000B90102C0660F771F8A95E2F7CB018095D8
:1008C000842381BB0895883058F429B330E0A9010E
:1008D00002C0559547958A95E2F7CA01817008953F
:1008E00098EF980F983070F496B3282F30E0285086
:1008F0003109892F90E002C0959587952A95E2F7F6
:100900008170089590EF980F983070F493B3282F6A
:1009100030E020513109892F90E002C095958795EC
:100920002A95E2F78170089598EE980F983070F448
:1009300090B3282F30E028513109892F90E002C070
:10094000959587952A95E2F78170089580E008953E
:10095000413029F4FC012081622B6083089541110C
:1009600005C0FC01208160956223608308954130B9
:1009700029F4FC012081622B60830895411105C098
:10098000FC01208160956223608308951F920F927D
:100990000FB60F9211248F939F93AF93BF938091C3
:1009A000DC009091DD00A091DE00B091DF000196A7
:1009B000A11DB11D8093DC009093DD00A093DE00AB
:1009C000B093DF00BF91AF919F918F910F900FBEB9
:1009D0000F901F901895A0E0B0E0880F991FAA1FF4
:1009E000BB1F880F991FAA1FBB1F9C01AD01220FBF
:1009F000331F441F551F220F331F441F551F60E034
:100A000074E284EF90E00E9473062150310930BDFA
:100A100029B98AB188608AB98AB180618AB986E8C1
:100A200080BD0E941B0308958CB95D9BFECF089585
:100A3000CF93DF93C82FD92F80E00E941405EC2FAD
:100A4000FD2FDF010D900020E9F7CD0101978C1BF0
:100A50000E9414058C2F0E941405DF91CF910895F8
:100A60000F931F93CF93DF938C01E0E6F0E00190AA
:100A70000020E9F73197EF01C056D040FC0101900A
:100A80000020E9F73197E81BF90BEC0FC8E0CE0F17
:100A900080E10E9414058C2F0E94140580E690E0EE
:100AA0000E94180584E00E94140582E00E9414054B
:100AB0008FEF0E9414058FEF0E941405C8010E9459
:100AC0001805DF91CF911F910F9108950F931F93F8
:100AD000CF938C01FC0101900020E9F73197E81BCE
:100AE000F90BC5E0CE0F82E80E9414058C2F0E94FE
:100AF0001405809166000E941405809165000E9493
:100B000014058091650090916600019690936600AF
:100B100080936500C8010E94180580E00E941405BA
:100B2000CF911F910F91089592B388E0892782BBDE
:100B300088B3805888BB089584E995E00E94E80254
:100B400008950E94D0010E9447020E94220361E0A2
:100B500086E00E94ED0261E084E10E94CD0361E045
:100B60008FE00E94CD0361E08CE10E94CD0361E043
:100B70008DE10E94CD0361E08BE10E94CD0360E036
:100B80008AE10E94CD030895CF93DF93CDB7DEB7FE
:100B9000C857D1090FB6F894DEBF0FBECDBF45EAE6
:100BA00050E061E083E00E94AA0244EB50E061E083
:100BB00084E00E94AA02BE016F5F7F4FCE01CD96F6
:100BC0000E94A001AE01435C5F4F67E083E00E949A
:100BD000AA02AE014F5F5F4F66E084E00E94AA0266
:100BE0002FEF84E39CE0215080409040E1F700C06B
:100BF0000000C858DF4F0FB6F894DEBF0FBECDBF60
:100C0000DF91CF910895CF92DF92EF92FF920F93F1
:100C10001F93CF93DF930E94330280E090E00E9405
:100C20002903EC0181E090E00E9429038C019E01E0
:100C3000A4E6B0E00E9495062BEF33E040E050E0E0
:100C40000E947306C4E6D0E0C21BD30B9801A4E651
:100C5000B0E00E94950627E931E040E050E00E94B4
:100C6000730669017A01890145EC50E061E081E099
:100C70000E94AA02BE0180E090E00E94B50285E2D7
:100C80000E94780241ED50E061E082E00E94AA02F9
:100C9000C701B601882799270E94B50285E20E9404
:100CA00078026F9728F461E08CE10E94370304C05A
:100CB00060E08CE10E9437030E31110528F461E0F9
:100CC0008DE10E94370304C060E08DE10E9437038C
:100CD0000E94C405DF91CF911F910F91FF90EF907B
:100CE000DF90CF900895A1E21A2EAA1BBB1BFD0135
:100CF0000DC0AA1FBB1FEE1FFF1FA217B307E407FB
:100D0000F50720F0A21BB30BE40BF50B661F771F52
:100D1000881F991F1A9469F7609570958095909532
:100D20009B01AC01BD01CF010895A29FB001B39F0B
:100D3000C001A39F700D811D1124911DB29F700DE4
:100D4000811D1124911D0895FB01DC010D900020EF
:100D5000E9F7119701900D920020E1F70895AEE0B8
:100D6000B0E0E5EBF6E00C9470090D891E8986E091
:100D70008C831A8309838FEF9FE79E838D83AE0157
:100D8000475E5F4F6F89788DCE0101960E94D10634
:100D9000EF81F885E00FF11F10822E96E4E00C94AD
:100DA0008C09ABE0B0E0E7EDF6E00C9462096C0171
:100DB0007B018A01FC0117821682838181FFCCC1ED
:100DC000CE0101963C01F6019381F70193FD8591D7
:100DD00093FF81917F01882309F4BAC1853239F4E8
:100DE00093FD859193FF81917F01853229F4B601AE
:100DF00090E00E94C808E7CF912C212C312CFFE114
:100E0000F315D8F08B3279F038F4803279F08332F0
:100E1000A1F4232D20611DC08D3261F0803369F46F
:100E2000232D216016C0832D8260382EE32DE460CF
:100E30003E2E2AC0F32DF8601DC037FC2DC020EDDA
:100E4000280F2A3040F08E32B9F436FC81C1232DB0
:100E50002064322E19C036FE06C08AE0989E200D0E
:100E60001124922E11C0EAE02E9E200D1124222E74
:100E7000F32DF0623F2E08C08C3621F4832D80685C
:100E8000382E02C0883641F4F70193FD859193FF17
:100E900081917F018111B3CF982F9F7D955493301D
:100EA00028F40C5F1F4F9FE399830DC0833631F008
:100EB000833771F0833509F059C021C0F801808172
:100EC00089830E5F1F4F88248394912C530113C094
:100ED0002801F2E04F0E511CF801A080B18036FECF
:100EE00003C0692D70E002C06FEF7FEFC5010E9463
:100EF000BD084C018201F32DFF773F2E16C028015B
:100F000022E0420E511CF801A080B18036FE03C0E1
:100F1000692D70E002C06FEF7FEFC5010E94B2083B
:100F20004C01F32DF0683F2E820133FC1BC0822D53
:100F300090E088169906B0F4B60180E290E00E9435
:100F4000C8082A94F4CFF50137FC859137FE8191CA
:100F50005F01B60190E00E94C80821102A9421E0A8
:100F6000821A91088114910471F7E8C0843611F057
:100F7000893641F5F80137FE07C0608171818281B1
:100F800093810C5F1F4F08C060817181072E000C98
:100F9000880B990B0E5F1F4FF32DFF763F2E97FFA7
:100FA00009C090958095709561957F4F8F4F9F4FA9
:100FB000F0683F2E2AE030E0A3010E940409882E49
:100FC000861845C0853731F4232D2F7EB22E2AE0B6
:100FD00030E025C0932D997FB92E8F36C1F018F4DB
:100FE000883579F0B5C0803719F0883721F0B0C066
:100FF000E92FE061BE2EB4FE0DC0FB2DF460BF2EC4
:1010000009C034FE0AC0292F2660B22E06C028E08F
:1010100030E005C020E130E002C020E132E0F8011C
:10102000B7FE07C060817181828193810C5F1F4F81
:1010300006C06081718180E090E00E5F1F4FA301C8
:101040000E940409882E8618FB2DFF773F2E36FE5E
:101050000DC0232D2E7FA22E891458F434FE0BC010
:1010600032FC09C0832D8E7EA82E05C0B82CA32C7F
:1010700003C0B82C01C0B92CA4FE0FC0FE01E80DBE
:10108000F11D8081803321F49A2D997EA92E09C00B
:10109000A2FE06C0B394B39404C08A2D867809F0EA
:1010A000B394A3FC11C0A0FE06C0B21488F4280CAF
:1010B000922C9B180EC0B21460F4B60180E290E04E
:1010C0000E94C808B394F7CFB21418F42B1802C0CA
:1010D000982C212CA4FE10C0B60180E390E00E9461
:1010E000C808A2FE17C0A1FC03C088E790E002C0B8
:1010F00088E590E0B6010CC08A2D867859F0A1FEF3
:1011000002C08BE201C080E2A7FC8DE2B60190E054
:101110000E94C808891438F4B60180E390E00E9468
:10112000C8089A94F7CF8A94F301E80DF11D8081E5
:10113000B60190E00E94C8088110F5CF222009F482
:1011400042CEB60180E290E00E94C8082A94F6CF11
:10115000F6018681978102C08FEF9FEF2B96E2E127
:101160000C947E09FC010590615070400110D8F785
:10117000809590958E0F9F1F0895FC0161507040DF
:1011800001900110D8F7809590958E0F9F1F0895BC
:101190000F931F93CF93DF93FB01238121FD03C0A6
:1011A0008FEF9FEF2CC022FF16C04681578124810C
:1011B00035814217530744F4A081B1819D012F5F0F
:1011C0003F4F318320838C93268137812F5F3F4FA0
:1011D0003783268314C08B01EC01FB010084F18569
:1011E000E02D0995892BE1F6D80116968D919C91F9
:1011F0001797019617969C938E931697CE01DF91C1
:10120000CF911F910F910895FA01AA27283051F12B
:10121000203181F1E8946F936E7F6E5F7F4F8F4F27
:101220009F4FAF4FB1E03ED0B4E03CD0670F781F86
:10123000891F9A1FA11D680F791F8A1F911DA11D6B
:101240006A0F711D811D911DA11D20D009F46894A4
:101250003F912AE0269F11243019305D3193DEF64C
:10126000CF010895462F4770405D4193B3E00FD002
:10127000C9F7F6CF462F4F70405D4A3318F0495DED
:1012800031FD4052419302D0A9F7EACFB4E0A695D0
:101290009795879577956795BA95C9F700976105F2
:1012A000710508959B01AC010A2E06945795479548
:1012B00037952795BA95C9F7620F731F841F951F3D
:1012C000A01D08952F923F924F925F926F927F924E
:1012D0008F929F92AF92BF92CF92DF92EF92FF9246
:1012E0000F931F93CF93DF93CDB7DEB7CA1BDB0BF2
:1012F0000FB6F894DEBF0FBECDBF09942A88398897
:1013000048885F846E847D848C849B84AA84B9849D
:10131000C884DF80EE80FD800C811B81AA81B981A9
:10132000CE0FD11D0FB6F894DEBF0FBECDBFED01BD
:061330000895F894FFCFC0
:101336004D51545400010031313131004E54492F82
:10134600436F6E74726F6C00257500506173732065
:1013560061636365707465640057726F6E672050D1
:1013660061737300456E7465722070617373776F75
:101376007264203A0048756D69643D202020202063
:101386002552480074656D703D20202020202044A1
:1013960065672E6300736F696C2077617465723DB3
:0A13A600004C69676874203D2000C8
:00000001FF
