S018000041746D656761333220647269766572732E7372656339
S11300000C942A000C947E000C9447000C94470036
S11300100C9447000C9447000C9447000C94470040
S11300200C9447000C9447000C9447000C94D004A3
S11300300C9447000C9447000C9447000C94470020
S11300400C9447000C9447000C9447000C94470010
S11300500C94470011241FBECFE5D8E0DEBFCDBF0E
S113006011E0A0E6B0E0E8E7F5E102C005900D92EA
S1130070AA30B107D9F721E0AAE0B1E001C01D928E
S1130080AA31B207E1F70E9449000C94BA0A0C9411
S1130090000080E895E20E94F50487E690E00E9463
S11300A056052FEF8DE399E4215080409040E1F70D
S11300B000C000008CE690E00E94BA050E9427066A
S11300C078940E9422060E94B306EAE0F1E00190CF
S11300D00020E9F73197AF014A5051406AE071E0DE
S11300E088E790E00E948C052FEF89E698E1215083
S11300F080409040E1F700C00000E5CF1F920F92CE
S11301000FB60F9211242F933F934F935F936F93E6
S11301107F938F939F93AF93BF93EF93FF93E0915C
S11301201401F09115010995FF91EF91BF91AF91E1
S11301309F918F917F916F915F914F913F912F91FB
S11301400F900FBE0F901F90189561E082E10E94FE
S1130150D70360E082E10E9441038FE39CE90197A9
S1130160F1F700C0000061E082E10E9441030895BC
S1130170CF93DF93D0E0C0E01BC082E10E946D0406
S11301808823D9F380E58A95F1F782E10E946D0412
S1130190811102C0CC0F06C08C2F90E0880F991FEC
S11301A0C82FC16082E10E946D048111FBCFDF5F23
S11301B0D83018F38C2FDF91CF91089560E082E15D
S11301C00E94D70382E10E946D048111FBCF82E17A
S11301D00E946D048823D9F382E10E946D04811189
S11301E0FBCF08954F925F926F927F928F929F926E
S11301F0AF92BF92CF92DF92EF92FF920F931F9331
S1130200CF93DF93CDB7DEB766970FB6F894DEBF12
S11302100FBECDBF3C015B014A01422E532E8EE23C
S113022090E09A8389838AE0FE013396DF01982F58
S11302301D929A95E9F73A96DF011D928A95E9F79E
S1130240772334F4E894B7F88DE2FA0181934F01EF
S11302509501ADECBCEC0E9476076C01D694C79472
S1130260D694C794D694C794DF92CF920FE710E048
S11302701F930F939F928F920E94C0079301ADEC3E
S1130280BCEC0E9476077C01F694E794F694E7941C
S1130290F694E794FF92EF921F930F935F924F921D
S11302A00E94C007C601880F991FCC0CDD1CCC0C22
S11302B0DD1CCC0CDD1CC80ED91EAC18BD08BF92C9
S11302C0AF921F930F936E01F3E0CF0ED11CDF9218
S11302D0CF920E94C007C701880F991FEE0CFF1C24
S11302E0EE0CFF1CEE0CFF1CE80EF91E6E187F08C6
S11302F07F926F921F930F938E01035F1F4F1F9383
S11303000F930E94C007BE016F5F7F4F842D952D10
S11303100E948507BE016F5F7F4FC4010E9485075D
S1130320B801842D952D0E948507B601C4010E9451
S113033085070FB6F894DEBF0FBECDBF66960FB625
S1130340F894DEBF0FBECDBFDF91CF911F910F9107
S1130350FF90EF90DF90CF90BF90AF909F908F90E1
S11303607F906F905F904F900895DF92EF92FF928D
S11303700F931F93CF93DF937C018B010E94A50001
S11303800E94DE000E94B800D82F0E94B800D82E28
S11303900E94B800C82F0E94B800ED2FF0E0FE2F95
S11303A0EE276C2F70E0762F6627682B9701A80143
S11303B0CF018D290E94F20081E0DF91CF911F913E
S11303C00F91FF90EF90DF90089541E06FE087E395
S11303D090E00E94C10441E06FE088E390E00E9455
S11303E0B20440E060E787E390E00E94C10441E08A
S11303F060E788E390E00E94B204089561E083E03E
S11304000E94410385E88A95F1F7000060E083E0EB
S11304100E94410385E88A95F1F700000895CF937F
S1130420C82F40E060EF8BE390E00E94B2046C2F91
S1130430607F41E08BE390E00E94B2040E94FE01E1
S113044040E060EF8BE390E00E94B20480E1C89F3B
S1130450B001112441E08BE390E00E94B2040E94B9
S1130460FE0185E88A95F1F70000CF910895CF93B6
S1130470C82F60E082E00E9441038C2F0E940F028B
S1130480CF91089581E00E9437028FE99FE00197A0
S1130490F1F700C00000089582E00E9437028FE95E
S11304A09FE00197F1F700C00000089541E060EF7C
S11304B08AE390E00E94C10441E06CE08AE390E0AA
S11304C00E94C1042FEF89EF90E0215080409040BA
S11304D0E1F700C000000E944C0286E00E9437024F
S11304E08CE00E94370280E10E94370288E20E9479
S11304F037020E9442020895CF93C82F61E082E040
S11305000E9441038C2F0E940F02CF9108950E94F4
S11305107C0208950F931F93CF938C01C0E003C016
S11305200E948702CF5FF801EC0FF11D80818111D9
S1130530F7CFCF911F910F910895813029F48FE760
S1130540860F0E9437020895823029F48FEB860FBC
S11305500E9437020895833029F48FE8860F0E94A1
S113056037020895843021F48FEC860F0E943702FD
S11305700895CF93DF93EA010E949D02CE010E9469
S11305808A02DF91CF9108950F931F93CF93DF9346
S1130590CDB7DEB72B970FB6F894DEBF0FBECDBF35
S11305A08E010F5F1F4F2BE0F80111922A95E9F796
S11305B09F938F937F936F938FE790E09F938F9395
S11305C01F930F930E94C007C8010E948A020FB6AE
S11305D0F894DEBF0FBECDBF2B960FB6F894DEBFE6
S11305E00FBECDBFDF91CF911F910F9108959093CE
S11305F015018093140108958630A1F08730E1F04D
S1130600853011F584B7262F217030E0002436950B
S113061027950794369527950794322F202D282B5C
S113062024BF089585B78C7F85BF85B7682B65BFC8
S11306308BB780648BBF089585B770E0660F771F12
S1130640660F771F682B65BF089541E060E88FE56A
S113065090E00E94B204089587B1806487B986B19E
S1130660876886B9089597B1907E97B997B1892B19
S113067087B986B1806486B93699FECF84B195B1C5
S113068008958830F8F4613069F44BB321E030E028
S1130690B90102C0660F771F8A95E2F7CB01842B5C
S11306A08BBB0895611182C04BB321E030E0B901E6
S11306B002C0660F771F8A95E2F7CB0180958423E9
S11306C08BBB089598EF980F983018F5613079F442
S11306D048B390E0089721E030E0B90102C0660F0A
S11306E0771F8A95E2F7CB01842B88BB08956111AB
S11306F05DC048B390E0089721E030E0B90102C042
S1130700660F771F8A95E2F7CB018095842388BB17
S1130710089590EF980F983018F5613079F445B347
S113072090E0409721E030E0B90102C0660F771FE6
S11307308A95E2F7CB01842B85BB0895611136C0FD
S113074045B390E0409721E030E0B90102C0660F64
S1130750771F8A95E2F7CB018095842385BB0895A2
S113076098EE980F983010F5613079F442B390E028
S1130770489721E030E0B90102C0660F771F8A95DF
S1130780E2F7CB01842B82BB089561110FC042B301
S113079090E0489721E030E0B90102C0660F771F6E
S11307A08A95E2F7CB018095842382BB0895883033
S11307B0F8F4613069F44AB321E030E0B90102C0D1
S11307C0660F771F8A95E2F7CB01842B8ABB0895C5
S11307D0611182C04AB321E030E0B90102C0660F62
S11307E0771F8A95E2F7CB01809584238ABB08950D
S11307F098EF980F983018F5613079F447B390E08A
S1130800089721E030E0B90102C0660F771F8A958E
S1130810E2F7CB01842B87BB089561115DC047B318
S113082090E0089721E030E0B90102C0660F771F1D
S11308308A95E2F7CB018095842387BB089590EFD6
S1130840980F983018F5613079F444B390E04097EC
S113085021E030E0B90102C0660F771F8A95E2F704
S1130860CB01842B84BB0895611136C044B390E05E
S1130870409721E030E0B90102C0660F771F8A95E6
S1130880E2F7CB018095842384BB089598EE980FFA
S1130890983010F5613079F441B390E0489721E045
S11308A030E0B90102C0660F771F8A95E2F7CB01E9
S11308B0842B81BB089561110FC041B390E0489728
S11308C021E030E0B90102C0660F771F8A95E2F794
S11308D0CB018095842381BB0895883058F429B3D3
S11308E030E0A90102C0559547958A95E2F7CA01FF
S11308F08170089598EF980F983070F496B3282F6C
S113090030E028503109892F90E002C095958795F1
S11309102A95E2F78170089590EF980F983070F45B
S113092093B3282F30E020513109892F90E002C081
S1130930959587952A95E2F78170089598EE980F1A
S1130940983070F490B3282F30E028513109892F62
S113095090E002C0959587952A95E2F781700895F5
S113096080E00895413029F4FC012081622B6083EA
S11309700895411105C0FC012081609562236083C4
S11309800895413029F4FC012081622B608308958D
S1130990411105C0FC0120816095622360830895A4
S11309A01F920F920FB60F9211248F939F93AF93C0
S11309B0BF938091160190911701A0911801B091F5
S11309C019010196A11DB11D809316019093170181
S11309D0A0931801B0931901BF91AF919F918F918A
S11309E00F900FBE0F901F901895A0E0B0E0880FF5
S11309F0991FAA1FBB1F880F991FAA1FBB1F9C0109
S1130A00AD01220F331F441F551F220F331F441FF4
S1130A10551F60E072E18AE790E00E94540721507C
S1130A20310930BD29B98AB188608AB98AB1806137
S1130A308AB986E880BD0E94250308958CB95D9B20
S1130A40FECF0895CF92DF92EF92FF92CF93DF9380
S1130A50EC01C12CD12C760107C00E941E058FEF3A
S1130A60C81AD80AE80AF80AFE01EC0DFD1D8081B7
S1130A708111F3CFDF91CF91FF90EF90DF90CF9072
S1130A800895CF93DF93EC0180E00E941E05FE01E0
S1130A9001900020E9F7CF0101978C1B0E941E05ED
S1130AA0CE010E942205DF91CF9108950F931F93E9
S1130AB0CF93DF938C01E0E6F0E001900020E9F7AA
S1130AC03197EF01C056D040FC0101900020E9F7B6
S1130AD03197E81BF90BEC0FC8E0CE0F80E10E94C0
S1130AE01E058C2F0E941E0580E690E00E944105A1
S1130AF084E00E941E0582E00E941E058FEF0E9482
S1130B001E058FEF0E941E05C8010E944105DF915A
S1130B10CF911F910F910895EF92FF920F931F931E
S1130B20CF93DF937C018B01D42FFC010190002033
S1130B30E9F73197E81BF90BE40FC2E0CE0F80E32D
S1130B400E941E058C2F0E941E05C7010E944105AC
S1130B50C0E007C0F801EC0FF11D80810E941E0562
S1130B60CF5FCD17B8F3DF91CF911F910F91FF9015
S1130B70EF9008950F931F93CF938C01FC01019084
S1130B800020E9F73197E81BF90BC5E0CE0F82E8A6
S1130B900E941E058C2F0E941E05809166000E94F3
S1130BA01E05809165000E941E058091650090914C
S1130BB0660001969093660080936500C8010E94C8
S1130BC0410580E00E941E05CF911F910F91089569
S1130BD0CF93DF93CDB7DEB72D970FB6F894DEBF72
S1130BE00FBECDBF8DE0E9E8F0E0BE016F5F7F4F3F
S1130BF0DB0101900D928A95E1F792B388E0892791
S1130C0082BB88B3805888BBFB0101900020E9F7C0
S1130C103197AF01461B570B82E890E00E948C0588
S1130C202FEF89E698E1215080409040E1F700C021
S1130C3000002D960FB6F894DEBF0FBECDBFDF9136
S1130C40CF91089588EE95E00E94F70208950E94DE
S1130C50E5010E9456020E942C0361E086E00E9496
S1130C60FC0261E084E10E94D70361E08FE00E940E
S1130C70D70361E08CE10E94D70361E08DE10E941B
S1130C80D70361E08BE10E94D70360E08AE10E9410
S1130C90D7030895EF92FF920F931F93CF93DF939F
S1130CA0CDB7DEB7C857D1090FB6F894DEBF0FBE73
S1130CB0CDBF40EC50E061E083E00E94B9024FEC0C
S1130CC050E061E084E00E94B9028E01035C1F4F92
S1130CD0CE0101967C01BC01C8010E94B501A801A6
S1130CE067E083E00E94B902A70166E084E00E9405
S1130CF0B902F70101900020E9F73197AF014E19CD
S1130D005F09B70180EE90E00E948C059FEF29E611
S1130D1088E1915020408040E1F700C00000F801D4
S1130D2001900020E9F73197AF01401B510BB80146
S1130D3086EE90E00E948C059FEF29E688E19150B1
S1130D4020408040E1F700C00000C858DF4F0FB6D4
S1130D50F894DEBF0FBECDBFDF91CF911F910F91ED
S1130D60FF90EF900895AF92BF92CF92DF92EF92EF
S1130D70FF920F931F93CF93DF9300D000D0CDB792
S1130D80DEB719821A821B821C820E94420280E012
S1130D9090E00E9433038C0181E090E00E943303D1
S1130DA07C019801A4E6B0E00E9476072BEF33E0C3
S1130DB040E050E00E94540704E610E0021B130BCD
S1130DC09701A4E6B0E00E94760727E931E040E00D
S1130DD050E00E94540769017A0159014CEE50E039
S1130DE061E081E00E94B902B80180E090E00E94D5
S1130DF0C40285E20E94870248EF50E061E082E08D
S1130E000E94B902C701B601882799270E94C4022B
S1130E1085E20E9487020F31110528F461E08CE11C
S1130E200E94410304C060E08CE10E9441032EE172
S1130E30A216B10428F461E08DE10E94410304C0CC
S1130E4060E08DE10E9441030E944A064AE050E0BE
S1130E508E010F5F1F4FB801C6010E949007F80171
S1130E6001900020E9F73197AF01401B510BB80105
S1130E7081E091E00E948C058FEF99E628E1815092
S1130E8090402040E1F700C000000F900F900F90B9
S1130E900F90DF91CF911F910F91FF90EF90DF9012
S1130EA0CF90BF90AF900895A1E21A2EAA1BBB1B4E
S1130EB0FD010DC0AA1FBB1FEE1FFF1FA217B30722
S1130EC0E407F50720F0A21BB30BE40BF50B661F38
S1130ED0771F881F991F1A9469F7609570958095FC
S1130EE090959B01AC01BD01CF010895A29FB00173
S1130EF0B39FC001A39F700D811D1124911DB29F4A
S1130F00700D811D1124911D0895FB01DC010D90CC
S1130F100020E9F7119701900D920020E1F7089560
S1130F204532510520F4423010F00C949B07FB012C
S1130F301082CB010895BB274A3031F4992322F45F
S1130F40BDE2909581959F4F0C94A707BB27FB01A9
S1130F505527AA27880F991FAA1FA41710F0A41BAE
S1130F6083955051B9F7A05DAA3308F0A95DA19308
S1130F70009779F7B111B1931192CB010C94D9096F
S1130F80AEE0B0E0E6ECF7E00C94910A0D891E891E
S1130F9086E08C831A8309838FEF9FE79E838D837A
S1130FA0AE01475E5F4F6F89788DCE0101960E9436
S1130FB0E207EF81F885E00FF11F10822E96E4E03E
S1130FC00C94AD0AABE0B0E0E8EEF7E00C94830AD1
S1130FD06C017B018A01FC0117821682838181FFE7
S1130FE0CCC1CE0101963C01F6019381F70193FD3A
S1130FF0859193FF81917F01882309F4BAC18532D9
S113100039F493FD859193FF81917F01853229F411
S1131010B60190E00E94E909E7CF912C212C312CF4
S1131020FFE1F315D8F08B3279F038F4803279F09F
S11310308332A1F4232D20611DC08D3261F08033F1
S113104069F4232D216016C0832D8260382EE32D90
S1131050E4603E2E2AC0F32DF8601DC037FC2DC07D
S113106020ED280F2A3040F08E32B9F436FC81C1CD
S1131070232D2064322E19C036FE06C08AE0989EC5
S1131080200D1124922E11C0EAE02E9E200D112471
S1131090222EF32DF0623F2E08C08C3621F4832DCE
S11310A08068382E02C0883641F4F70193FD85919B
S11310B093FF81917F018111B3CF982F9F7D955428
S11310C0933028F40C5F1F4F9FE399830DC0833640
S11310D031F0833771F0833509F059C021C0F8012C
S11310E0808189830E5F1F4F88248394912C530140
S11310F013C02801F2E04F0E511CF801A080B1800A
S113110036FE03C0692D70E002C06FEF7FEFC501AA
S11311100E94CE094C018201F32DFF773F2E16C0A9
S1131120280122E0420E511CF801A080B18036FE55
S113113003C0692D70E002C06FEF7FEFC5010E940C
S1131140C3094C01F32DF0683F2E820133FC1BC010
S1131150822D90E088169906B0F4B60180E290E002
S11311600E94E9092A94F4CFF50137FC859137FEF2
S113117081915F01B60190E00E94E90921102A944F
S113118021E0821A91088114910471F7E8C0843631
S113119011F0893641F5F80137FE07C0608171818D
S11311A0828193810C5F1F4F08C060817181072E7B
S11311B0000C880B990B0E5F1F4FF32DFF763F2E0B
S11311C097FF09C090958095709561957F4F8F4FDB
S11311D09F4FF0683F2E2AE030E0A3010E94250AC9
S11311E0882E861845C0853731F4232D2F7EB22EE4
S11311F02AE030E025C0932D997FB92E8F36C1F0B7
S113120018F4883579F0B5C0803719F0883721F0A3
S1131210B0C0E92FE061BE2EB4FE0DC0FB2DF4601A
S1131220BF2E09C034FE0AC0292F2660B22E06C084
S113123028E030E005C020E130E002C020E132E0E7
S1131240F801B7FE07C060817181828193810C5FD0
S11312501F4F06C06081718180E090E00E5F1F4FD8
S1131260A3010E94250A882E8618FB2DFF773F2EA6
S113127036FE0DC0232D2E7FA22E891458F434FE81
S11312800BC032FC09C0832D8E7EA82E05C0B82C5D
S1131290A32C03C0B82C01C0B92CA4FE0FC0FE01BE
S11312A0E80DF11D8081803321F49A2D997EA92EB9
S11312B009C0A2FE06C0B394B39404C08A2D8678F4
S11312C009F0B394A3FC11C0A0FE06C0B21488F4C4
S11312D0280C922C9B180EC0B21460F4B60180E264
S11312E090E00E94E909B394F7CFB21418F42B18D4
S11312F002C0982C212CA4FE10C0B60180E390E01B
S11313000E94E909A2FE17C0A1FC03C088E790E08F
S113131002C088E590E0B6010CC08A2D867859F0A9
S1131320A1FE02C08BE201C080E2A7FC8DE2B601FF
S113133090E00E94E909891438F4B60180E390E052
S11313400E94E9099A94F7CF8A94F301E80DF11DFC
S11313508081B60190E00E94E9098110F5CF222036
S113136009F442CEB60180E290E00E94E9092A9491
S1131370F6CFF6018681978102C08FEF9FEF2B96FF
S1131380E2E10C949F0AFC01059061507040011049
S1131390D8F7809590958E0F9F1F0895FC0161509A
S11313A0704001900110D8F7809590958E0F9F1F83
S11313B00895DC01FC01672F71917723E1F73297DF
S11313C004C07C916D9370836291AE17BF07C8F31C
S11313D008950F931F93CF93DF93FB01238121FD86
S11313E003C08FEF9FEF2CC022FF16C046815781A8
S11313F0248135814217530744F4A081B1819D01B2
S11314002F5F3F4F318320838C93268137812F5F59
S11314103F4F3783268314C08B01EC01FB0100840A
S1131420F185E02D0995892BE1F6D80116968D9169
S11314309C911797019617969C938E931697CE01BD
S1131440DF91CF911F910F910895FA01AA272830B7
S113145051F1203181F1E8946F936E7F6E5F7F4F7D
S11314608F4F9F4FAF4FB1E03ED0B4E03CD0670FF9
S1131470781F891F9A1FA11D680F791F8A1F911D4C
S1131480A11D6A0F711D811D911DA11D20D009F49C
S113149068943F912AE0269F11243019305D3193DE
S11314A0DEF6CF010895462F4770405D4193B3E0C7
S11314B00FD0C9F7F6CF462F4F70405D4A3318F06E
S11314C0495D31FD4052419302D0A9F7EACFB4E01F
S11314D0A6959795879577956795BA95C9F70097D7
S11314E06105710508959B01AC010A2E0694579578
S11314F0479537952795BA95C9F7620F731F841FCF
S1131500951FA01D08952F923F924F925F926F9264
S11315107F928F929F92AF92BF92CF92DF92EF927F
S1131520FF920F931F93CF93DF93CDB7DEB7CA1B00
S1131530DB0B0FB6F894DEBF0FBECDBF09942A882B
S1131540398848885F846E847D848C849B84AA84D3
S1131550B984C884DF80EE80FD800C811B81AA8160
S1131560B981CE0FD11D0FB6F894DEBF0FBECDBF2B
S10B1570ED010895F894FFCF8A
S11315784D51545400010031313131004E54492F3A
S1131588436F6E74726F6C00472F54656D7000253D
S11315987500472F6669726500686F6D65206F6E08
S11315A820666972650050617373206163636570B6
S11315B87465640057726F6E6720506173730045D9
S11315C86E7465722070617373776F7264203A0069
S11315D848756D69643D20202020202552480074F8
S11315E8656D703D2020202020204465672E63000F
S11315F8472F44485400472F68756D00736F696C12
S11316082077617465723D004C69676874203D20D9
S10D161800472F6C69676874000036
S9030000FC
