:100000000C942A000C9447000C9447000C94470071
:100010000C9447000C9447000C9447000C94470044
:100020000C9447000C9447000C9447000C94CE02AB
:100030000C9447000C94F3020C9447000C94470076
:100040000C9447000C9447000C9447000C94470014
:100050000C94470011241FBECFE5D8E0DEBFCDBF12
:1000600010E0A0E6B0E0E0E8FDE002C005900D92EF
:10007000A23AB107D9F721E0A2EAB0E001C01D928F
:10008000AB30B207E1F70E9449000C94BE060C9415
:1000900000000E9415030E942C032FEF89E698E1CF
:1000A000215080409040E1F700C00000F4CF41E0D3
:1000B0006FE087E390E00E94BF0241E06FE088E3D9
:1000C00090E00E94B00240E060E787E390E00E9489
:1000D000BF0241E060E788E390E00E94B00208952B
:1000E00061E083E00E94840187EC90E00197F1F7E2
:1000F00000C0000060E083E00E94840187EC90E093
:100100000197F1F700C000000895CF93C82F40E099
:1001100060EF8BE390E00E94B0026C2F607F41E0C3
:100120008BE390E00E94B0020E94700040E060EF1C
:100130008BE390E00E94B00280E1C89FB0011124DF
:1001400041E08BE390E00E94B0020E94700087ECD7
:1001500090E00197F1F700C00000CF910895CF9390
:10016000C82F60E082E00E9484018C2F0E948500ED
:10017000CF91089581E00E94AF008FE39FE1019746
:10018000F1F700C00000089582E00E94AF008FE305
:100190009FE10197F1F700C00000089541E060EF92
:1001A0008AE390E00E94BF0241E06CE08AE390E0C5
:1001B0000E94BF022FEF83EF91E0215080409040DA
:1001C000E1F700C000000E94C40086E00E94AF007A
:1001D0008CE00E94AF0080E10E94AF0088E20E94A4
:1001E000AF000E94BA000895CF93C82F61E082E06B
:1001F0000E9484018C2F0E948500CF9108950E9457
:10020000F40008950F931F93CF938C01C0E003C0B7
:100210000E94FF00CF5FF801EC0FF11D808181117A
:10022000F7CFCF911F910F910895813029F48FE777
:10023000860F0E94AF000895823029F48FEB860F5D
:100240000E94AF000895833029F48FE8860F0E9442
:10025000AF000895843021F48FEC860F0E94AF0028
:100260000895CF93DF93EA010E941501CE010E9409
:100270000201DF91CF9108950F931F93CF93DF93E6
:10028000CDB7DEB72B970FB6F894DEBF0FBECDBF4C
:100290008E010F5F1F4F2BE0F80111922A95E9F7AD
:1002A0009F938F937F936F9380E690E09F938F93BC
:1002B0001F930F930E94D403C8010E9402010FB63E
:1002C000F894DEBF0FBECDBF2B960FB6F894DEBFFD
:1002D0000FBECDBFDF91CF911F910F91089587B1D0
:1002E000806487B986B1876886B9089597B1907E92
:1002F00097B997B1892B87B986B1806486B9369949
:10030000FECF84B195B108958830F8F4613069F476
:100310004BB321E030E0B90102C0660F771F8A9528
:10032000E2F7CB01842B8BBB0895611182C04BB3E4
:1003300021E030E0B90102C0660F771F8A95E2F72D
:10034000CB01809584238BBB089598EF980F98304C
:1003500018F5613079F448B390E0089721E030E077
:10036000B90102C0660F771F8A95E2F7CB01842B93
:1003700088BB089561115DC048B390E0089721E003
:1003800030E0B90102C0660F771F8A95E2F7CB0112
:100390008095842388BB089590EF980F983018F5C6
:1003A000613079F445B390E0409721E030E0B90145
:1003B00002C0660F771F8A95E2F7CB01842B85BBBD
:1003C0000895611136C045B390E0409721E030E0D8
:1003D000B90102C0660F771F8A95E2F7CB018095BD
:1003E000842385BB089598EE980F983010F56130FE
:1003F00079F442B390E0489721E030E0B90102C0BF
:10040000660F771F8A95E2F7CB01842B82BB089594
:1004100061110FC042B390E0489721E030E0B9018C
:1004200002C0660F771F8A95E2F7CB01809584237F
:1004300082BB08958830F8F4613069F44AB321E052
:1004400030E0B90102C0660F771F8A95E2F7CB0151
:10045000842B8ABB0895611182C04AB321E030E049
:10046000B90102C0660F771F8A95E2F7CB0180952C
:1004700084238ABB089598EF980F983018F561305F
:1004800079F447B390E0089721E030E0B90102C069
:10049000660F771F8A95E2F7CB01842B87BB0895FF
:1004A00061115DC047B390E0089721E030E0B901E9
:1004B00002C0660F771F8A95E2F7CB0180958423EF
:1004C00087BB089590EF980F983018F5613079F454
:1004D00044B390E0409721E030E0B90102C0660FDC
:1004E000771F8A95E2F7CB01842B84BB08956111B5
:1004F00036C044B390E0409721E030E0B90102C03B
:10050000660F771F8A95E2F7CB018095842384BB21
:10051000089598EE980F983010F5613079F441B352
:1005200090E0489721E030E0B90102C0660F771FE4
:100530008A95E2F7CB01842B81BB089561110FC02E
:1005400041B390E0489721E030E0B90102C0660F66
:10055000771F8A95E2F7CB018095842381BB0895AC
:10056000413029F4FC012081622B60830895411100
:1005700005C0FC01208160956223608308954130AD
:1005800029F4FC012081622B60830895411105C08C
:10059000FC01208160956223608308951F920F9271
:1005A0000FB60F9211248F939F93AF93BF938091B7
:1005B000A2009091A300A091A400B091A500019683
:1005C000A11DB11D8093A2009093A300A093A4004D
:1005D000B093A500BF91AF919F918F910F900FBEE7
:1005E0000F901F9018951F920F920FB60F92112423
:1005F0008F939F93EF93FF938091A600E82FF0E0F5
:100600009CB1E955FF4F90838F5F8093A6008530A2
:1006100019F41092AD00F894FF91EF919F918F9192
:100620000F900FBE0F901F9018950E9457000E94C8
:10063000CE000E946F0161E084E10E941A0261E035
:100640008FE00E941A0261E08CE10E941A0261E0D0
:100650008DE10E941A020895CF92DF92EF92FF92ED
:100660000F931F93CF93DF930E94BA0080E090E036
:100670000E947601EC0181E090E00E9476018C01FD
:100680009E01A4E6B0E00E94C5032BEF33E040E0FA
:1006900050E00E94A303C4E6D0E0C21BD30B980134
:1006A000A4E6B0E00E94C50327E931E040E050E055
:1006B0000E94A30369017A0189014DE850E061E0DD
:1006C00081E00E943101BE0180E090E00E943C0187
:1006D00085E20E94FF0049E950E061E082E00E946B
:1006E0003101C701B601882799270E943C0185E2A4
:1006F0000E94FF006F9728F461E08CE10E94840162
:1007000004C060E08CE10E9484010E31110528F4E0
:1007100061E08DE10E94840104C060E08DE10E94EF
:1007200084012FEF81EE94E0215080409040E1F76A
:1007300000C00000DF91CF911F910F91FF90EF90CB
:10074000DF90CF900895A1E21A2EAA1BBB1BFD01DA
:100750000DC0AA1FBB1FEE1FFF1FA217B307E407A0
:10076000F50720F0A21BB30BE40BF50B661F771FF8
:10077000881F991F1A9469F76095709580959095D8
:100780009B01AC01BD01CF010895A29FB001B39FB1
:10079000C001A39F700D811D1124911DB29F700D8A
:1007A000811D1124911D0895AEE0B0E0EAEDF3E063
:1007B0000C9495060D891E8986E08C831A83098323
:1007C0008FEF9FE79E838D83AE01475E5F4F6F89FA
:1007D000788DCE0101960E94F603EF81F885E00F37
:1007E000F11F10822E96E4E00C94B106ABE0B0E06D
:1007F000ECEFF3E00C9487066C017B018A01FC01AD
:1008000017821682838181FFCCC1CE0101963C0103
:10081000F6019381F70193FD859193FF81917F010B
:10082000882309F4BAC1853239F493FD859193FF89
:1008300081917F01853229F4B60190E00E94ED0597
:10084000E7CF912C212C312CFFE1F315D8F08B321E
:1008500079F038F4803279F08332A1F4232D2061CD
:100860001DC08D3261F0803369F4232D216016C0E4
:10087000832D8260382EE32DE4603E2E2AC0F32DB6
:10088000F8601DC037FC2DC020ED280F2A3040F045
:100890008E32B9F436FC81C1232D2064322E19C06A
:1008A00036FE06C08AE0989E200D1124922E11C0BB
:1008B000EAE02E9E200D1124222EF32DF0623F2E11
:1008C00008C08C3621F4832D8068382E02C088360B
:1008D00041F4F70193FD859193FF81917F0181118F
:1008E000B3CF982F9F7D9554933028F40C5F1F4F02
:1008F0009FE399830DC0833631F0833771F08335E0
:1009000009F059C021C0F801808189830E5F1F4F13
:1009100088248394912C530113C02801F2E04F0ED8
:10092000511CF801A080B18036FE03C0692D70E033
:1009300002C06FEF7FEFC5010E94E2054C0182010A
:10094000F32DFF773F2E16C0280122E0420E511CE6
:10095000F801A080B18036FE03C0692D70E002C0AE
:100960006FEF7FEFC5010E94D7054C01F32DF068B2
:100970003F2E820133FC1BC0822D90E08816990621
:10098000B0F4B60180E290E00E94ED052A94F4CF25
:10099000F50137FC859137FE81915F01B60190E04A
:1009A0000E94ED0521102A9421E0821A91088114F9
:1009B000910471F7E8C0843611F0893641F5F801E9
:1009C00037FE07C060817181828193810C5F1F4F68
:1009D00008C060817181072E000C880B990B0E5F97
:1009E0001F4FF32DFF763F2E97FF09C090958095FE
:1009F000709561957F4F8F4F9F4FF0683F2E2AE093
:100A000030E0A3010E942906882E861845C085374C
:100A100031F4232D2F7EB22E2AE030E025C0932D15
:100A2000997FB92E8F36C1F018F4883579F0B5C0AA
:100A3000803719F0883721F0B0C0E92FE061BE2E71
:100A4000B4FE0DC0FB2DF460BF2E09C034FE0AC0F9
:100A5000292F2660B22E06C028E030E005C020E134
:100A600030E002C020E132E0F801B7FE07C060814B
:100A70007181828193810C5F1F4F06C060817181FB
:100A800080E090E00E5F1F4FA3010E942906882E90
:100A90008618FB2DFF773F2E36FE0DC0232D2E7FAF
:100AA000A22E891458F434FE0BC032FC09C0832DE9
:100AB0008E7EA82E05C0B82CA32C03C0B82C01C074
:100AC000B92CA4FE0FC0FE01E80DF11D808180331A
:100AD00021F49A2D997EA92E09C0A2FE06C0B394D6
:100AE000B39404C08A2D867809F0B394A3FC11C096
:100AF000A0FE06C0B21488F4280C922C9B180EC0DD
:100B0000B21460F4B60180E290E00E94ED05B39467
:100B1000F7CFB21418F42B1802C0982C212CA4FE85
:100B200010C0B60180E390E00E94ED05A2FE17C060
:100B3000A1FC03C088E790E002C088E590E0B60120
:100B40000CC08A2D867859F0A1FE02C08BE201C04C
:100B500080E2A7FC8DE2B60190E00E94ED058914C9
:100B600038F4B60180E390E00E94ED059A94F7CF47
:100B70008A94F301E80DF11D8081B60190E00E9496
:100B8000ED058110F5CF222009F442CEB60180E2B6
:100B900090E00E94ED052A94F6CFF60186819781B8
:100BA00002C08FEF9FEF2B96E2E10C94A306FC01AD
:100BB0000590615070400110D8F7809590958E0F88
:100BC0009F1F0895FC016150704001900110D8F7FB
:100BD000809590958E0F9F1F08950F931F93CF932D
:100BE000DF93FB01238121FD03C08FEF9FEF2CC01A
:100BF00022FF16C046815781248135814217530751
:100C000044F4A081B1819D012F5F3F4F3183208348
:100C10008C93268137812F5F3F4F3783268314C003
:100C20008B01EC01FB010084F185E02D0995892BF6
:100C3000E1F6D80116968D919C911797019617961B
:100C40009C938E931697CE01DF91CF911F910F91B8
:100C50000895FA01AA27283051F1203181F1E89452
:100C60006F936E7F6E5F7F4F8F4F9F4FAF4FB1E09F
:100C70003ED0B4E03CD0670F781F891F9A1FA11D9A
:100C8000680F791F8A1F911DA11D6A0F711D811D9B
:100C9000911DA11D20D009F468943F912AE0269F60
:100CA00011243019305D3193DEF6CF010895462FBF
:100CB0004770405D4193B3E00FD0C9F7F6CF462FA0
:100CC0004F70405D4A3318F0495D31FD4052419309
:100CD00002D0A9F7EACFB4E0A695979587957795C6
:100CE0006795BA95C9F700976105710508959B014D
:100CF000AC010A2E06945795479537952795BA95D6
:100D0000C9F7620F731F841F951FA01D08952F92AE
:100D10003F924F925F926F927F928F929F92AF928B
:100D2000BF92CF92DF92EF92FF920F931F93CF93D8
:100D3000DF93CDB7DEB7CA1BDB0B0FB6F894DEBF6F
:100D40000FBECDBF09942A88398848885F846E8495
:100D50007D848C849B84AA84B984C884DF80EE80DF
:100D6000FD800C811B81AA81B981CE0FD11D0FB6E8
:100D7000F894DEBF0FBECDBFED010895F894FFCF0C
:100D800025750050617373206163636570746564D9
:100D90000057726F6E67205061737300456E746503
:100DA000722070617373776F7264203A00736F6999
:100DB0006C2077617465723D004C69676874203DF2
:020DC000200011
:00000001FF
