:100000000C942A000C9492000C9447000C94470026
:100010000C9447000C9447000C9447000C94470044
:100020000C9447000C9447000C9447000C94BB04BC
:100030000C9447000C9447000C9447000C94470024
:100040000C9447000C9447000C9447000C94470014
:100050000C94470011241FBECFE5D8E0DEBFCDBF12
:1000600010E0A0E6B0E0EEE8F4E102C005900D92E9
:10007000AA3EB107D9F720E0AAEEB0E001C01D9278
:10008000A03FB207E1F70E9449000C94450A0C9486
:100090000000CF93DF9300D000D0CDB7DEB7198238
:1000A0001A821B821C8280E895E20E94E00487E6A7
:1000B00090E00E9441052FEF89E698E121508040B1
:1000C0009040E1F700C000008CE690E00E94A5059A
:1000D0000E94E0050E94DB05FF24F3940E943E0687
:1000E0004AE050E08E010F5F1F4FB8018F2D90E066
:1000F0000E941B07F80101900020E9F73197AF013A
:10010000401B510BB80188E790E00E947705F394FB
:100110002FEF89E698E1215080409040E1F700C040
:100120000000DCCF1F920F920FB60F9211242F9375
:100130003F934F935F936F937F938F939F93AF936F
:10014000BF93EF93FF93E091EA00F091EB000995E4
:10015000FF91EF91BF91AF919F918F917F916F919F
:100160005F914F913F912F910F900FBE0F901F9075
:10017000189561E082E10E94C20360E082E10E9482
:100180002C038FE39CE90197F1F700C0000061E0C8
:1001900082E10E942C030895CF93DF93D0E0C0E06A
:1001A0001BC082E10E9458048823D9F380E58A9518
:1001B000F1F782E10E945804811102C0CC0F06C001
:1001C0008C2F90E0880F991FC82FC16082E10E9498
:1001D00058048111FBCFDF5FD83018F38C2FDF91EB
:1001E000CF91089560E082E10E94C20382E10E9403
:1001F00058048111FBCF82E10E9458048823D9F36F
:1002000082E10E9458048111FBCF08954F925F92C2
:100210006F927F928F929F92AF92BF92CF92DF9216
:10022000EF92FF920F931F93CF93DF93CDB7DEB77B
:1002300066970FB6F894DEBF0FBECDBF3C015B01E1
:100240004A01422E532E8EE290E09A8389838AE0FF
:10025000FE013396DF01982F1D929A95E9F73A96A1
:10026000DF011D928A95E9F7772334F4E894B7F813
:100270008DE2FA0181934F019501ADECBCEC0E9437
:1002800001076C01D694C794D694C794D694C794AA
:10029000DF92CF920FE710E01F930F939F928F9200
:1002A0000E944B079301ADECBCEC0E9401077C015E
:1002B000F694E794F694E794F694E794FF92EF921D
:1002C0001F930F935F924F920E944B07C601880FB6
:1002D000991FCC0CDD1CCC0CDD1CCC0CDD1CC80E1D
:1002E000D91EAC18BD08BF92AF921F930F936E0139
:1002F000F3E0CF0ED11CDF92CF920E944B07C701D3
:10030000880F991FEE0CFF1CEE0CFF1CEE0CFF1C5F
:10031000E80EF91E6E187F087F926F921F930F935D
:100320008E01035F1F4F1F930F930E944B07BE0167
:100330006F5F7F4F842D952D0E941007BE016F5F68
:100340007F4FC4010E941007B801842D952D0E9493
:100350001007B601C4010E9410070FB6F894DEBF63
:100360000FBECDBF66960FB6F894DEBF0FBECDBFF1
:10037000DF91CF911F910F91FF90EF90DF90CF9081
:10038000BF90AF909F908F907F906F905F904F90B5
:100390000895DF92EF92FF920F931F93CF93DF9315
:1003A0007C018B010E94B9000E94F2000E94CC00E7
:1003B000D82F0E94CC00D82E0E94CC00C82F0E94BB
:1003C000CC00ED2FF0E0FE2FEE276C2F70E0762FA3
:1003D0006627682B9701A801CF018D290E9406018D
:1003E00081E0DF91CF911F910F91FF90EF90DF900F
:1003F000089541E06FE087E390E00E94AC0441E0A3
:100400006FE088E390E00E949D0440E060E787E3AE
:1004100090E00E94AC0441E060E788E390E00E9435
:100420009D04089561E083E00E942C0385E88A958D
:10043000F1F7000060E083E00E942C0385E88A95D4
:10044000F1F700000895CF93C82F40E060EF8BE3F1
:1004500090E00E949D046C2F607F41E08BE390E070
:100460000E949D040E94120240E060EF8BE390E046
:100470000E949D0480E1C89FB001112441E08BE3FC
:1004800090E00E949D040E94120285E88A95F1F78F
:100490000000CF910895CF93C82F60E082E00E94C2
:1004A0002C038C2F0E942302CF91089581E00E949B
:1004B0004B028FE99FE00197F1F700C0000008951B
:1004C00082E00E944B028FE99FE00197F1F700C0A4
:1004D0000000089541E060EF8AE390E00E94AC04E0
:1004E00041E06CE08AE390E00E94AC042FEF89EFDA
:1004F00090E0215080409040E1F700C000000E9451
:10050000600286E00E944B028CE00E944B0280E178
:100510000E944B0288E20E944B020E9456020895FC
:10052000CF93C82F61E082E00E942C038C2F0E94A1
:100530002302CF9108950E94900208950F931F9374
:10054000CF938C01C0E003C00E949B02CF5FF801F3
:10055000EC0FF11D80818111F7CFCF911F910F9189
:100560000895813029F48FE7860F0E944B02089589
:10057000823029F48FEB860F0E944B02089583305E
:1005800029F48FE8860F0E944B020895843021F4ED
:100590008FEC860F0E944B020895CF93DF93EA0100
:1005A0000E94B102CE010E949E02DF91CF91089578
:1005B0000F931F93CF93DF93CDB7DEB72B970FB673
:1005C000F894DEBF0FBECDBF8E010F5F1F4F2BE033
:1005D000F80111922A95E9F79F938F937F936F9378
:1005E0008FE790E09F938F931F930F930E944B0789
:1005F000C8010E949E020FB6F894DEBF0FBECDBFA9
:100600002B960FB6F894DEBF0FBECDBFDF91CF9112
:100610001F910F9108959093EB008093EA00089545
:1006200041E060E88FE590E00E949D04089587B165
:10063000806487B986B1876886B9089597B1907E3E
:1006400097B997B1892B87B986B1806486B93699F5
:10065000FECF84B195B108958830F8F4613069F423
:100660004BB321E030E0B90102C0660F771F8A95D5
:10067000E2F7CB01842B8BBB0895611182C04BB391
:1006800021E030E0B90102C0660F771F8A95E2F7DA
:10069000CB01809584238BBB089598EF980F9830F9
:1006A00018F5613079F448B390E0089721E030E024
:1006B000B90102C0660F771F8A95E2F7CB01842B40
:1006C00088BB089561115DC048B390E0089721E0B0
:1006D00030E0B90102C0660F771F8A95E2F7CB01BF
:1006E0008095842388BB089590EF980F983018F573
:1006F000613079F445B390E0409721E030E0B901F2
:1007000002C0660F771F8A95E2F7CB01842B85BB69
:100710000895611136C045B390E0409721E030E084
:10072000B90102C0660F771F8A95E2F7CB01809569
:10073000842385BB089598EE980F983010F56130AA
:1007400079F442B390E0489721E030E0B90102C06B
:10075000660F771F8A95E2F7CB01842B82BB089541
:1007600061110FC042B390E0489721E030E0B90139
:1007700002C0660F771F8A95E2F7CB01809584232C
:1007800082BB08958830F8F4613069F44AB321E0FF
:1007900030E0B90102C0660F771F8A95E2F7CB01FE
:1007A000842B8ABB0895611182C04AB321E030E0F6
:1007B000B90102C0660F771F8A95E2F7CB018095D9
:1007C00084238ABB089598EF980F983018F561300C
:1007D00079F447B390E0089721E030E0B90102C016
:1007E000660F771F8A95E2F7CB01842B87BB0895AC
:1007F00061115DC047B390E0089721E030E0B90196
:1008000002C0660F771F8A95E2F7CB01809584239B
:1008100087BB089590EF980F983018F5613079F400
:1008200044B390E0409721E030E0B90102C0660F88
:10083000771F8A95E2F7CB01842B84BB0895611161
:1008400036C044B390E0409721E030E0B90102C0E7
:10085000660F771F8A95E2F7CB018095842384BBCE
:10086000089598EE980F983010F5613079F441B3FF
:1008700090E0489721E030E0B90102C0660F771F91
:100880008A95E2F7CB01842B81BB089561110FC0DB
:1008900041B390E0489721E030E0B90102C0660F13
:1008A000771F8A95E2F7CB018095842381BB089559
:1008B000883058F429B330E0A90102C05595479516
:1008C0008A95E2F7CA018170089598EF980F9830E1
:1008D00070F496B3282F30E028503109892F90E02A
:1008E00002C0959587952A95E2F78170089590EF5B
:1008F000980F983070F493B3282F30E020513109CD
:10090000892F90E002C0959587952A95E2F781702E
:10091000089598EE980F983070F490B3282F30E037
:1009200028513109892F90E002C0959587952A9525
:10093000E2F78170089580E00895413029F4FC01C8
:100940002081622B60830895411105C0FC01208144
:100950006095622360830895413029F4FC01208171
:10096000622B60830895411105C0FC0120816095D0
:100970006223608308951F920F920FB60F92112485
:100980008F939F93AF93BF938091EC009091ED0074
:10099000A091EE00B091EF000196A11DB11D8093D2
:1009A000EC009093ED00A093EE00B093EF00BF91A8
:1009B000AF919F918F910F900FBE0F901F90189540
:1009C000A0E0B0E0880F991FAA1FBB1F880F991FD6
:1009D000AA1FBB1F9C01AD01220F331F441F551FCF
:1009E000220F331F441F551F60E072E18AE790E039
:1009F0000E94DF062150310930BD29B98AB18860D3
:100A00008AB98AB180618AB986E880BD0E941003E4
:100A100008958CB95D9BFECF0895CF92DF92EF923F
:100A2000FF92CF93DF93EC01C12CD12C760107C04C
:100A30000E9409058FEFC81AD80AE80AF80AFE01D1
:100A4000EC0DFD1D80818111F3CFDF91CF91FF90DF
:100A5000EF90DF90CF900895CF93DF93EC0180E08B
:100A60000E940905FE0101900020E9F7CF010197DE
:100A70008C1B0E940905CE010E940D05DF91CF91CC
:100A800008950F931F93CF93DF938C01E0E6F0E07E
:100A900001900020E9F73197EF01C056D040FC01EA
:100AA00001900020E9F73197E81BF90BEC0FC8E043
:100AB000CE0F80E10E9409058C2F0E94090580E677
:100AC00090E00E942C0584E00E94090582E00E94CB
:100AD00009058FEF0E9409058FEF0E940905C801E3
:100AE0000E942C05DF91CF911F910F910895EF92F5
:100AF000FF920F931F93CF93DF937C018B01D42F31
:100B0000FC0101900020E9F73197E81BF90BE40F95
:100B1000C2E0CE0F80E30E9409058C2F0E940905D8
:100B2000C7010E942C05C0E007C0F801EC0FF11DC1
:100B300080810E940905CF5FCD17B8F3DF91CF9177
:100B40001F910F91FF90EF9008950F931F93CF93F4
:100B50008C01FC0101900020E9F73197E81BF90BAB
:100B6000C5E0CE0F82E80E9409058C2F0E9409057E
:100B7000809166000E940905809165000E94090528
:100B80008091650090916600019690936600809335
:100B90006500C8010E942C0580E00E940905CF91E4
:100BA0001F910F91089592B388E0892782BB88B383
:100BB000805888BB089583ED95E00E940B0308954B
:100BC0000E94F9010E946A020E94170361E084E119
:100BD0000E94C20361E08FE00E94C20361E08CE1E9
:100BE0000E94C20361E08DE10E94C20361E08BE1DB
:100BF0000E94C20360E08AE10E94C2030895CF937D
:100C0000DF93CDB7DEB7C857D1090FB6F894DEBF72
:100C10000FBECDBF4CEA50E061E083E00E94CD0200
:100C20004BEB50E061E084E00E94CD02BE016F5FBB
:100C30007F4FCE01CD960E94C901AE01435C5F4F4C
:100C400067E083E00E94CD02AE014F5F5F4F66E038
:100C500084E00E94CD022FEF84E39CE0215080408D
:100C60009040E1F700C00000C858DF4F0FB6F8947D
:100C7000DEBF0FBECDBFDF91CF910895AF92BF927F
:100C8000CF92DF92EF92FF920F931F93CF93DF9358
:100C900000D000D0CDB7DEB719821A821B821C8229
:100CA0000E94560280E090E00E941E038C0181E0C9
:100CB00090E00E941E037C019801A4E6B0E00E942F
:100CC00001072BEF33E040E050E00E94DF0604E62E
:100CD00010E0021B130B9701A4E6B0E00E9401078D
:100CE00027E931E040E050E00E94DF0669017A0127
:100CF00059014CEC50E061E081E00E94CD02B80166
:100D000080E090E00E94D80285E20E949B0248EDBC
:100D100050E061E082E00E94CD02C701B601882761
:100D200099270E94D80285E20E949B020F3111058B
:100D300028F461E08CE10E942C0304C060E08CE1A7
:100D40000E942C032EE1A216B10428F461E08DE18B
:100D50000E942C0304C060E08DE10E942C030E94DD
:100D6000FF054AE050E08E010F5F1F4FB801C6013A
:100D70000E941B07F80101900020E9F73197AF01AD
:100D8000401B510BB80181EE90E00E9477058FEF78
:100D900099E628E1815090402040E1F700C0000032
:100DA0000F900F900F900F90DF91CF911F910F91A7
:100DB000FF90EF90DF90CF90BF90AF900895A1E2A9
:100DC0001A2EAA1BBB1BFD010DC0AA1FBB1FEE1FC5
:100DD000FF1FA217B307E407F50720F0A21BB30B10
:100DE000E40BF50B661F771F881F991F1A9469F78C
:100DF00060957095809590959B01AC01BD01CF01E8
:100E00000895A29FB001B39FC001A39F700D811DE3
:100E10001124911DB29F700D811D1124911D089503
:100E2000FB01DC010D900020E9F7119701900D9274
:100E30000020E1F708954532510520F4423010F0CA
:100E40000C942607FB011082CB010895BB274A3082
:100E500031F4992322F4BDE2909581959F4F0C9433
:100E60003207BB27FB015527AA27880F991FAA1F06
:100E7000A41710F0A41B83955051B9F7A05DAA33B5
:100E800008F0A95DA193009779F7B111B193119280
:100E9000CB010C946409AEE0B0E0E1E5F7E00C941E
:100EA0001C0A0D891E8986E08C831A8309838FEFC3
:100EB0009FE79E838D83AE01475E5F4F6F89788D7C
:100EC000CE0101960E946D07EF81F885E00FF11FBA
:100ED00010822E96E4E00C94380AABE0B0E0E3E731
:100EE000F7E00C940E0A6C017B018A01FC01178269
:100EF0001682838181FFCCC1CE0101963C01F601AF
:100F00009381F70193FD859193FF81917F01882360
:100F100009F4BAC1853239F493FD859193FF81912B
:100F20007F01853229F4B60190E00E947409E7CF71
:100F3000912C212C312CFFE1F315D8F08B3279F074
:100F400038F4803279F08332A1F4232D20611DC062
:100F50008D3261F0803369F4232D216016C0832D1A
:100F60008260382EE32DE4603E2E2AC0F32DF86017
:100F70001DC037FC2DC020ED280F2A3040F08E32E6
:100F8000B9F436FC81C1232D2064322E19C036FEFF
:100F900006C08AE0989E200D1124922E11C0EAE02E
:100FA0002E9E200D1124222EF32DF0623F2E08C01C
:100FB0008C3621F4832D8068382E02C0883641F4A7
:100FC000F70193FD859193FF81917F018111B3CF4B
:100FD000982F9F7D9554933028F40C5F1F4F9FE30B
:100FE00099830DC0833631F0833771F0833509F072
:100FF00059C021C0F801808189830E5F1F4F88246A
:101000008394912C530113C02801F2E04F0E511C20
:10101000F801A080B18036FE03C0692D70E002C0E7
:101020006FEF7FEFC5010E9459094C018201F32D3A
:10103000FF773F2E16C0280122E0420E511CF80116
:10104000A080B18036FE03C0692D70E002C06FEF52
:101050007FEFC5010E944E094C01F32DF0683F2E31
:10106000820133FC1BC0822D90E088169906B0F4F3
:10107000B60180E290E00E9474092A94F4CFF50151
:1010800037FC859137FE81915F01B60190E00E94A7
:10109000740921102A9421E0821A91088114910484
:1010A00071F7E8C0843611F0893641F5F80137FE52
:1010B00007C060817181828193810C5F1F4F08C0DE
:1010C00060817181072E000C880B990B0E5F1F4FFA
:1010D000F32DFF763F2E97FF09C090958095709570
:1010E00061957F4F8F4F9F4FF0683F2E2AE030E091
:1010F000A3010E94B009882E861845C0853731F4B7
:10110000232D2F7EB22E2AE030E025C0932D997F2B
:10111000B92E8F36C1F018F4883579F0B5C0803714
:1011200019F0883721F0B0C0E92FE061BE2EB4FE7F
:101130000DC0FB2DF460BF2E09C034FE0AC0292F5C
:101140002660B22E06C028E030E005C020E130E085
:1011500002C020E132E0F801B7FE07C06081718172
:10116000828193810C5F1F4F06C06081718180E096
:1011700090E00E5F1F4FA3010E94B009882E8618D1
:10118000FB2DFF773F2E36FE0DC0232D2E7FA22E86
:10119000891458F434FE0BC032FC09C0832D8E7EB6
:1011A000A82E05C0B82CA32C03C0B82C01C0B92CA4
:1011B000A4FE0FC0FE01E80DF11D8081803321F4F3
:1011C0009A2D997EA92E09C0A2FE06C0B394B394AD
:1011D00004C08A2D867809F0B394A3FC11C0A0FE48
:1011E00006C0B21488F4280C922C9B180EC0B214BE
:1011F00060F4B60180E290E00E947409B394F7CFE6
:10120000B21418F42B1802C0982C212CA4FE10C084
:10121000B60180E390E00E947409A2FE17C0A1FC11
:1012200003C088E790E002C088E590E0B6010CC0FA
:101230008A2D867859F0A1FE02C08BE201C080E2BF
:10124000A7FC8DE2B60190E00E947409891438F47D
:10125000B60180E390E00E9474099A94F7CF8A94D3
:10126000F301E80DF11D8081B60190E00E94740940
:101270008110F5CF222009F442CEB60180E290E041
:101280000E9474092A94F6CFF6018681978102C0E4
:101290008FEF9FEF2B96E2E10C942A0AFC01059058
:1012A000615070400110D8F7809590958E0F9F1F68
:1012B0000895FC016150704001900110D8F78095AD
:1012C00090958E0F9F1F0895DC01FC01672F71918F
:1012D0007723E1F7329704C07C916D93708362911C
:1012E000AE17BF07C8F308950F931F93CF93DF93F3
:1012F000FB01238121FD03C08FEF9FEF2CC022FF54
:1013000016C046815781248135814217530744F422
:10131000A081B1819D012F5F3F4F318320838C934A
:10132000268137812F5F3F4F3783268314C08B017F
:10133000EC01FB010084F185E02D0995892BE1F694
:10134000D80116968D919C911797019617969C93AC
:101350008E931697CE01DF91CF911F910F91089533
:10136000FA01AA27283051F1203181F1E8946F93D6
:101370006E7F6E5F7F4F8F4F9F4FAF4FB1E03ED07C
:10138000B4E03CD0670F781F891F9A1FA11D680F1A
:10139000791F8A1F911DA11D6A0F711D811D911D4D
:1013A000A11D20D009F468943F912AE0269F1124C2
:1013B0003019305D3193DEF6CF010895462F477026
:1013C000405D4193B3E00FD0C9F7F6CF462F4F7081
:1013D000405D4A3318F0495D31FD4052419302D0DF
:1013E000A9F7EACFB4E0A695979587957795679585
:1013F000BA95C9F700976105710508959B01AC0185
:101400000A2E06945795479537952795BA95C9F7AB
:10141000620F731F841F951FA01D08952F923F9286
:101420004F925F926F927F928F929F92AF92BF92F4
:10143000CF92DF92EF92FF920F931F93CF93DF93A0
:10144000CDB7DEB7CA1BDB0B0FB6F894DEBF0FBEFD
:10145000CDBF09942A88398848885F846E847D844A
:101460008C849B84AA84B984C884DF80EE80FD804C
:101470000C811B81AA81B981CE0FD11D0FB6F894C2
:0E148000DEBF0FBECDBFED010895F894FFCF83
:10148E004D51545400010031313131004E54492F29
:10149E00436F6E74726F6C00472F54656D7000252C
:1014AE0075005061737320616363657074656400C9
:1014BE0057726F6E67205061737300456E7465725C
:1014CE002070617373776F7264203A0048756D698E
:1014DE00643D20202020202552480074656D703D0B
:1014EE002020202020204465672E6300736F696CD6
:1014FE002077617465723D004C69676874203D20E9
:0A150E0000472F6C69676874000045
:00000001FF
