:100000000C942A000C949B010C9447000C9447001C
:100010000C9447000C9447000C9447000C94470044
:100020000C9447000C9447000C9447000C94210357
:100030000C9447000C9446030C9447000C94470022
:100040000C9447000C9447000C9447000C94470014
:100050000C94470011241FBECFE5D8E0DEBFCDBF12
:1000600010E0A0E6B0E0EAE3FEE002C005900D92E9
:10007000A23AB107D9F721E0A2EAB0E001C01D928F
:10008000AD30B207E1F70E9449000C941B070C94B5
:1000900000000E9468030E948903FDCF41E06FE0E9
:1000A00087E390E00E94120341E06FE088E390E074
:1000B0000E94030340E060E787E390E00E941203A0
:1000C00041E060E788E390E00E940303089561E067
:1000D00083E00E94D70187EC90E00197F1F700C020
:1000E000000060E083E00E94D70187EC90E0019778
:1000F000F1F700C000000895CF93C82F40E060EFF3
:100100008BE390E00E9403036C2F607F41E08BE360
:1001100090E00E9403030E94670040E060EF8BE3E1
:1001200090E00E94030380E1C89FB001112441E0E8
:100130008BE390E00E9403030E94670087EC90E04D
:100140000197F1F700C00000CF910895CF93C82F19
:1001500060E082E00E94D7018C2F0E947C00CF914A
:10016000089581E00E94A6008FE39FE10197F1F7D7
:1001700000C00000089582E00E94A6008FE39FE186
:100180000197F1F700C00000089541E060EF8AE3B5
:1001900090E00E94120341E06CE08AE390E00E944C
:1001A00012032FEF83EF91E0215080409040E1F760
:1001B00000C000000E94BB0086E00E94A6008CE008
:1001C0000E94A60080E10E94A60088E20E94A6008C
:1001D0000E94B1000895CF93C82F61E082E00E9491
:1001E000D7018C2F0E947C00CF9108950E94EB00D4
:1001F00008950F931F93CF938C01C0E003C00E941A
:10020000F600CF5FF801EC0FF11D80818111F7CF6F
:10021000CF911F910F910895813029F48FE7860FB8
:100220000E94A6000895823029F48FEB860F0E9469
:10023000A6000895833029F48FE8860F0E94A60057
:100240000895843021F48FEC860F0E94A600089553
:10025000CF93DF93EA010E940C01CE010E94F900C6
:10026000DF91CF9108950F931F93CF93DF93CDB775
:10027000DEB72B970FB6F894DEBF0FBECDBF8E0151
:100280000F5F1F4F2BE0F80111922A95E9F79F931A
:100290008F937F936F9380E690E09F938F931F934C
:1002A0000F930E943104C8010E94F9000FB6F89420
:1002B000DEBF0FBECDBF2B960FB6F894DEBF0FBECC
:1002C000CDBFDF91CF911F910F9108959BB721E092
:1002D00030E0082E02C0220F331F0A94E2F7292BC8
:1002E0002BBF8630A1F08730B1F08530E1F484B7C0
:1002F000462F417050E00024569547950794569537
:1003000047950794542F402D482B44BF089585B737
:10031000682B65BF089585B770E0660F771F660F7D
:10032000771F682B65BF089541E060E88FE590E096
:100330000E94030308951F920F920FB60F9211248B
:100340002F933F934F935F936F937F938F939F93DD
:10035000AF93BF93EF93FF93E091A700F091A800B4
:100360000995FF91EF91BF91AF919F918F917F91EF
:100370006F915F914F913F912F910F900FBE0F9012
:100380001F90189587B1806487B986B1876886B950
:10039000089597B1907E97B997B1892B87B986B1A7
:1003A000806486B93699FECF84B195B108958830BE
:1003B000F8F4613069F44BB321E030E0B90102C0D8
:1003C000660F771F8A95E2F7CB01842B8BBB0895CC
:1003D000611182C04BB321E030E0B90102C0660F69
:1003E000771F8A95E2F7CB01809584238BBB089514
:1003F00098EF980F983018F5613079F448B390E091
:10040000089721E030E0B90102C0660F771F8A9596
:10041000E2F7CB01842B88BB089561115DC048B31E
:1004200090E0089721E030E0B90102C0660F771F25
:100430008A95E2F7CB018095842388BB089590EFDD
:10044000980F983018F5613079F445B390E04097F3
:1004500021E030E0B90102C0660F771F8A95E2F70C
:10046000CB01842B85BB0895611136C045B390E064
:10047000409721E030E0B90102C0660F771F8A95EE
:10048000E2F7CB018095842385BB089598EE980F01
:10049000983010F5613079F442B390E0489721E04C
:1004A00030E0B90102C0660F771F8A95E2F7CB01F1
:1004B000842B82BB089561110FC042B390E048972E
:1004C00021E030E0B90102C0660F771F8A95E2F79C
:1004D000CB018095842382BB08958830F8F4613085
:1004E00069F44AB321E030E0B90102C0660F771F1A
:1004F0008A95E2F7CB01842B8ABB0895611182C0F3
:100500004AB321E030E0B90102C0660F771F8A9537
:10051000E2F7CB01809584238ABB089598EF980F6A
:10052000983018F5613079F447B390E0089721E0EE
:1005300030E0B90102C0660F771F8A95E2F7CB0160
:10054000842B87BB089561115DC047B390E0089785
:1005500021E030E0B90102C0660F771F8A95E2F70B
:10056000CB018095842387BB089590EF980F983036
:1005700018F5613079F444B390E0409721E030E021
:10058000B90102C0660F771F8A95E2F7CB01842B71
:1005900084BB0895611136C044B390E0409721E0D8
:1005A00030E0B90102C0660F771F8A95E2F7CB01F0
:1005B0008095842384BB089598EE980F983010F5A9
:1005C000613079F441B390E0489721E030E0B9011F
:1005D00002C0660F771F8A95E2F7CB01842B81BB9F
:1005E000089561110FC041B390E0489721E030E0D9
:1005F000B90102C0660F771F8A95E2F7CB0180959B
:10060000842381BB0895413029F4FC012081622BB1
:1006100060830895411105C0FC012081609562232B
:1006200060830895413029F4FC012081622B6083AE
:100630000895411105C0FC0120816095622360830B
:1006400008951F920F920FB60F9211248F939F93CC
:10065000AF93BF938091A2009091A300A091A400BA
:10066000B091A5000196A11DB11D8093A2009093A9
:10067000A300A093A400B093A500BF91AF919F9158
:100680008F910F900FBE0F901F9018951F920F9291
:100690000FB60F9211248F939F93EF93FF93809146
:1006A000A600E82FF0E09CB1E755FF4F90838F5FE5
:1006B0008093A600853019F41092AF00F894FF9152
:1006C000EF919F918F910F900FBE0F901F901895F3
:1006D0000E944E000E94C5000E94C20163E086E0B5
:1006E0000E9466010E94940161E084E10E946D0213
:1006F00061E08FE00E946D0261E08CE10E946D027A
:1007000061E08DE10E946D0261E08BE10E946D026B
:100710000895CF92DF92EF92FF920F931F93CF93A2
:10072000DF930E94B10080E090E00E94C901EC01DB
:1007300081E090E00E94C9018C019E01A4E6B0E036
:100740000E9422042BEF33E040E050E00E940004BE
:10075000C4E6D0E0C21BD30B9801A4E6B0E00E942F
:10076000220427E931E040E050E00E9400046901E2
:100770007A0189014DE850E061E081E00E942801A2
:10078000BE0180E090E00E94330185E20E94F60005
:1007900049E950E061E082E00E942801C701B6010A
:1007A000882799270E94330185E20E94F6006F97FF
:1007B00028F461E08CE10E94D70104C060E08CE184
:1007C0000E94D7010E31110528F461E08DE10E94ED
:1007D000D70104C060E08DE10E94D7012FEF81EEC8
:1007E00094E0215080409040E1F700C00000DF918C
:1007F000CF911F910F91FF90EF90DF90CF900895D0
:10080000A1E21A2EAA1BBB1BFD010DC0AA1FBB1F14
:10081000EE1FFF1FA217B307E407F50720F0A21B86
:10082000B30BE40BF50B661F771F881F991F1A94F3
:1008300069F760957095809590959B01AC01BD011D
:10084000CF010895A29FB001B39FC001A39F700D77
:10085000811D1124911DB29F700D811D1124911DC8
:100860000895AEE0B0E0E7E3F4E00C94F2060D8901
:100870001E8986E08C831A8309838FEF9FE79E830E
:100880008D83AE01475E5F4F6F89788DCE010196F3
:100890000E945304EF81F885E00FF11F10822E961D
:1008A000E4E00C940E07ABE0B0E0E9E5F4E00C9472
:1008B000E4066C017B018A01FC01178216828381A8
:1008C00081FFCCC1CE0101963C01F6019381F70175
:1008D00093FD859193FF81917F01882309F4BAC12B
:1008E000853239F493FD859193FF81917F018532A3
:1008F00029F4B60190E00E944A06E7CF912C212C02
:10090000312CFFE1F315D8F08B3279F038F48032D6
:1009100079F08332A1F4232D20611DC08D3261F066
:10092000803369F4232D216016C0832D8260382E18
:10093000E32DE4603E2E2AC0F32DF8601DC037FC85
:100940002DC020ED280F2A3040F08E32B9F436FC4D
:1009500081C1232D2064322E19C036FE06C08AE0E4
:10096000989E200D1124922E11C0EAE02E9E200D9B
:100970001124222EF32DF0623F2E08C08C3621F474
:10098000832D8068382E02C0883641F4F70193FD2C
:10099000859193FF81917F018111B3CF982F9F7D26
:1009A0009554933028F40C5F1F4F9FE399830DC03B
:1009B000833631F0833771F0833509F059C021C097
:1009C000F801808189830E5F1F4F88248394912CC6
:1009D000530113C02801F2E04F0E511CF801A08012
:1009E000B18036FE03C0692D70E002C06FEF7FEF6B
:1009F000C5010E943F064C018201F32DFF773F2E77
:100A000016C0280122E0420E511CF801A080B180DE
:100A100036FE03C0692D70E002C06FEF7FEFC501A5
:100A20000E9434064C01F32DF0683F2E820133FC06
:100A30001BC0822D90E088169906B0F4B60180E2C2
:100A400090E00E944A062A94F4CFF50137FC859184
:100A500037FE81915F01B60190E00E944A062110A5
:100A60002A9421E0821A91088114910471F7E8C058
:100A7000843611F0893641F5F80137FE07C06081F0
:100A80007181828193810C5F1F4F08C060817181E9
:100A9000072E000C880B990B0E5F1F4FF32DFF766E
:100AA0003F2E97FF09C090958095709561957F4F77
:100AB0008F4F9F4FF0683F2E2AE030E0A3010E9445
:100AC0008606882E861845C0853731F4232D2F7E63
:100AD000B22E2AE030E025C0932D997FB92E8F36B3
:100AE000C1F018F4883579F0B5C0803719F088372F
:100AF00021F0B0C0E92FE061BE2EB4FE0DC0FB2D89
:100B0000F460BF2E09C034FE0AC0292F2660B22E21
:100B100006C028E030E005C020E130E002C020E15E
:100B200032E0F801B7FE07C0608171818281938154
:100B30000C5F1F4F06C06081718180E090E00E5F06
:100B40001F4FA3010E948606882E8618FB2DFF7773
:100B50003F2E36FE0DC0232D2E7FA22E891458F471
:100B600034FE0BC032FC09C0832D8E7EA82E05C03A
:100B7000B82CA32C03C0B82C01C0B92CA4FE0FC004
:100B8000FE01E80DF11D8081803321F49A2D997EBC
:100B9000A92E09C0A2FE06C0B394B39404C08A2D46
:100BA000867809F0B394A3FC11C0A0FE06C0B2146D
:100BB00088F4280C922C9B180EC0B21460F4B60175
:100BC00080E290E00E944A06B394F7CFB21418F482
:100BD0002B1802C0982C212CA4FE10C0B60180E373
:100BE00090E00E944A06A2FE17C0A1FC03C088E75D
:100BF00090E002C088E590E0B6010CC08A2D8678AE
:100C000059F0A1FE02C08BE201C080E2A7FC8DE298
:100C1000B60190E00E944A06891438F4B60180E3D8
:100C200090E00E944A069A94F7CF8A94F301E80D67
:100C3000F11D8081B60190E00E944A068110F5CF37
:100C4000222009F442CEB60180E290E00E944A06DA
:100C50002A94F6CFF6018681978102C08FEF9FEF2D
:100C60002B96E2E10C940007FC0105906150704066
:100C70000110D8F7809590958E0F9F1F0895FC0165
:100C80006150704001900110D8F7809590958E0FBB
:100C90009F1F08950F931F93CF93DF93FB01238131
:100CA00021FD03C08FEF9FEF2CC022FF16C04681AD
:100CB0005781248135814217530744F4A081B181C3
:100CC0009D012F5F3F4F318320838C932681378195
:100CD0002F5F3F4F3783268314C08B01EC01FB014C
:100CE0000084F185E02D0995892BE1F6D80116964F
:100CF0008D919C911797019617969C938E931697BA
:100D0000CE01DF91CF911F910F910895FA01AA278B
:100D1000283051F1203181F1E8946F936E7F6E5F3E
:100D20007F4F8F4F9F4FAF4FB1E03ED0B4E03CD0EC
:100D3000670F781F891F9A1FA11D680F791F8A1FCF
:100D4000911DA11D6A0F711D811D911DA11D20D036
:100D500009F468943F912AE0269F11243019305DF0
:100D60003193DEF6CF010895462F4770405D4193E1
:100D7000B3E00FD0C9F7F6CF462F4F70405D4A332E
:100D800018F0495D31FD4052419302D0A9F7EACFF6
:100D9000B4E0A6959795879577956795BA95C9F725
:100DA00000976105710508959B01AC010A2E069418
:100DB0005795479537952795BA95C9F7620F731FD1
:100DC000841F951FA01D08952F923F924F925F920E
:100DD0006F927F928F929F92AF92BF92CF92DF924B
:100DE000EF92FF920F931F93CF93DF93CDB7DEB7B0
:100DF000CA1BDB0B0FB6F894DEBF0FBECDBF099444
:100E00002A88398848885F846E847D848C849B849A
:100E1000AA84B984C884DF80EE80FD800C811B81A8
:100E2000AA81B981CE0FD11D0FB6F894DEBF0FBED7
:0A0E3000CDBFED010895F894FFCF47
:100E3A00257500506173732061636365707465641E
:100E4A000057726F6E67205061737300456E746548
:100E5A00722070617373776F7264203A00736F69DE
:100E6A006C2077617465723D004C69676874203D37
:020E7A00200056
:00000001FF
