S018000041746D656761333220647269766572732E7372656339
S11300000C9432000C9486000C944F000C944F0016
S11300100C944F000C944F000C944F000C944F0020
S11300200C944F000C944F000C944F000C948105D9
S11300300C944F000C94AD000C944F000C944F00A2
S11300400C944F000C944F000C944F000C944F00F0
S11300500C944F00840889088E08930898089D081A
S1130060A208A70811241FBECFE5D8E0DEBFCDBF8C
S113007011E0A0E6B0E0E6ECF7E102C005900D92D5
S1130080AA30B107D9F721E0AAE0B1E001C01D927E
S1130090AC3AB207E1F70E9451000C94E10B0C94C6
S11300A00000CF93DF9300D000D01F92CDB7DEB70E
S11300B080E895E20E94A60588E790E00E940A067F
S11300C02FEF8DE399E4215080409040E1F700C088
S11300D000008DE790E00E946E060E94DB06789493
S11300E08E010F5F1F4F85E0F80111928A95E9F7A1
S11300F00E94D6060E940A08C8010E9477070E943F
S11301000A0880910A010E947A08F9CF1F920F927F
S11301100FB60F9211242F933F934F935F936F93D6
S11301207F938F939F93AF93BF93EF93FF93E0914C
S1130130A401F091A5010995FF91EF91BF91AF91B1
S11301409F918F917F916F915F914F913F912F91EB
S11301500F900FBE0F901F9018951F920F920FB61D
S11301600F9211242F933F938F939F93EF93FF93B9
S11301709CB190930A0180910B0181110AC09033C4
S113018041F481E080930D0190930E0180930B0163
S113019027C0813079F4E0910D018E0F80930D0119
S11301A0F0E0E25FFE4F908382E080930B01909336
S11301B00C0116C08230A1F4E0910D0121E02E0F54
S11301C020930D01F0E0E25FFE4F908330E08091D8
S11301D00C0190E002962817390711F410920B01D4
S11301E080910E01803341F4E0910C01F0E0E15F75
S11301F0FE4F808180930A01FF91EF919F918F912F
S11302003F912F910F900FBE0F901F90189561E0B2
S113021082E10E94880460E082E10E94F2038FE39D
S11302209CE90197F1F700C0000061E082E10E94BF
S1130230F2030895CF93DF93D0E0C0E01BC082E1C6
S11302400E941E058823D9F380E58A95F1F782E19F
S11302500E941E05811102C0CC0F06C08C2F90E0B5
S1130260880F991FC82FC16082E10E941E05811169
S1130270FBCFDF5FD83018F38C2FDF91CF91089537
S113028060E082E10E94880482E10E941E058111DF
S1130290FBCF82E10E941E058823D9F382E10E94EC
S11302A01E058111FBCF08954F925F926F927F924A
S11302B08F929F92AF92BF92CF92DF92EF92FF9272
S11302C00F931F93CF93DF93CDB7DEB766970FB627
S11302D0F894DEBF0FBECDBF3C015B014A01422E44
S11302E0532E8EE290E09A8389838AE0FE0133964E
S11302F0DF01982F1D929A95E9F73A96DF011D9236
S11303008A95E9F7772334F4E894B7F88DE2FA0193
S113031081934F019501ADECBCEC0E94D4086C01B3
S1130320D694C794D694C794D694C794DF92CF92A8
S113033007E810E01F930F939F928F920E94F70893
S11303409301ADECBCEC0E94D4087C01F694E794D4
S1130350F694E794F694E794FF92EF921F930F9329
S11303605F924F920E94F708C601880F991FCC0C28
S1130370DD1CCC0CDD1CCC0CDD1CC80ED91EAC184D
S1130380BD08BF92AF921F930F936E01F3E0CF0E9F
S1130390D11CDF92CF920E94F708C701880F991FE2
S11303A0EE0CFF1CEE0CFF1CEE0CFF1CE80EF91EFD
S11303B06E187F087F926F921F930F938E01035FD5
S11303C01F4F1F930F930E94F708BE016F5F7F4F6B
S11303D0842D952D0E94E308BE016F5F7F4FC401F9
S11303E00E94E308B801842D952D0E94E308B6010C
S11303F0C4010E94E3080FB6F894DEBF0FBECDBF60
S113040066960FB6F894DEBF0FBECDBFDF91CF91D5
S11304101F910F91FF90EF90DF90CF90BF90AF901E
S11304209F908F907F906F905F904F900895DF9290
S1130430EF92FF920F931F93CF93DF937C018B0175
S11304400E9407010E9440010E941A01D82F0E94B5
S11304501A01D82E0E941A01C82F0E941A01ED2FEA
S1130460F0E0FE2FEE276C2F70E0762F6627682BC6
S11304709701A801CF018D290E94540181E0DF91E9
S1130480CF911F910F91FF90EF90DF90089541E07D
S11304906FE087E390E00E94720541E06FE088E33B
S11304A090E00E94630540E060E787E390E00E94EB
S11304B0720541E060E788E390E00E9463050895D7
S11304C0CF93DF93D8E02BC060E08D2F0E94F2031E
S11304D0CCE01EC08C2F0E941E05811118C08C2FE9
S11304E00E941E058823D9F32D2F30E028503109AE
S11304F0EC2FF0E0CF010C97F901EE0FFF1FE20F94
S1130500F31FE05AFF4FE80FF91F80810BC0CF5F44
S1130510CF3000F361E08D2F0E94F203DF5FDC3007
S113052098F280E0DF91CF91089561E083E00E942A
S1130530F20385E88A95F1F7000060E083E00E9409
S1130540F20385E88A95F1F700000895CF93C82F48
S113055040E060EF8BE390E00E9463056C2F607FC6
S113056041E08BE390E00E9463050E94950240E025
S113057060EF8BE390E00E94630580E1C89FB001C7
S1130580112441E08BE390E00E9463050E949502F0
S113059085E88A95F1F70000CF910895CF93C82F8D
S11305A060E082E00E94F2038C2F0E94A602CF91A9
S11305B0089581E00E94CE028FE99FE00197F1F750
S11305C000C00000089582E00E94CE028FE99FE0FF
S11305D00197F1F700C00000089541E060EF8AE35D
S11305E090E00E94720541E06CE08AE390E00E9492
S11305F072052FEF89EF90E0215080409040E1F7A1
S113060000C000000E94E30286E00E94CE028CE05B
S11306100E94CE0280E10E94CE0288E20E94CE02B5
S11306200E94D9020895CF93C82F61E082E00E940E
S1130630F2038C2F0E94A602CF9108950E94130307
S113064008950F931F93CF938C01C0E003C00E94C1
S11306501E03CF5FF801EC0FF11D80818111F7CFEC
S1130660CF911F910F910895813029F48FE7860F60
S11306700E94CE020895823029F48FEB860F0E94E7
S1130680CE020895833029F48FE8860F0E94CE02AB
S11306900895843021F48FEC860F0E94CE020895D1
S11306A0CF93C42F0E9434038C2F0E941E03CF913A
S11306B00895CF93DF93EA010E943403CE010E9490
S11306C02103DF91CF9108950F931F93CF93DF936D
S11306D0CDB7DEB72B970FB6F894DEBF0FBECDBFF4
S11306E08E010F5F1F4F2BE0F80111922A95E9F755
S11306F09F938F937F936F9387E890E09F938F935B
S11307001F930F930E94F708C8010E9421030FB69C
S1130710F894DEBF0FBECDBF2B960FB6F894DEBFA4
S11307200FBECDBFDF91CF911F910F910895CF924E
S1130730DF92EF92FF9269017A010E943403C701AC
S1130740B6010E946403FF90EF90DF90CF9008956C
S11307509093A5018093A40108958630A1F0873079
S1130760E1F0853011F584B7262F217030E00024A4
S1130770369527950794369527950794322F202D83
S1130780282B24BF089585B78C7F85BF85B7682B38
S113079065BF8BB780648BBF089585B770E0660F23
S11307A0771F660F771F682B65BF089541E060E8E7
S11307B08FE590E00E946305089587B1806487B94E
S11307C086B1876886B9089597B1907E97B997B135
S11307D0892B87B986B1806486B93699FECF84B1F6
S11307E095B108958830F8F4613069F44BB321E091
S11307F030E0B90102C0660F771F8A95E2F7CB019A
S1130800842B8BBB0895611182C04BB321E030E08F
S1130810B90102C0660F771F8A95E2F7CB01809574
S113082084238BBB089598EF980F983018F56130A6
S113083079F448B390E0089721E030E0B90102C0B0
S1130840660F771F8A95E2F7CB01842B88BB089546
S113085061115DC048B390E0089721E030E0B90130
S113086002C0660F771F8A95E2F7CB018095842337
S113087088BB089590EF980F983018F5613079F49B
S113088045B390E0409721E030E0B90102C0660F23
S1130890771F8A95E2F7CB01842B85BB08956111FC
S11308A036C045B390E0409721E030E0B90102C082
S11308B0660F771F8A95E2F7CB018095842385BB69
S11308C0089598EE980F983010F5613079F442B39A
S11308D090E0489721E030E0B90102C0660F771F2D
S11308E08A95E2F7CB01842B82BB089561110FC076
S11308F042B390E0489721E030E0B90102C0660FAE
S1130900771F8A95E2F7CB018095842382BB0895F3
S11309108830F8F4613069F44AB321E030E0B90179
S113092002C0660F771F8A95E2F7CB01842B8ABB3E
S11309300895611182C04AB321E030E0B90102C0D8
S1130940660F771F8A95E2F7CB01809584238ABBD3
S1130950089598EF980F983018F5613079F447B3FB
S113096090E0089721E030E0B90102C0660F771FDC
S11309708A95E2F7CB01842B87BB089561115DC092
S113098047B390E0089721E030E0B90102C0660F58
S1130990771F8A95E2F7CB018095842387BB08955E
S11309A090EF980F983018F5613079F444B390E0E3
S11309B0409721E030E0B90102C0660F771F8A95A5
S11309C0E2F7CB01842B84BB0895611136C044B394
S11309D090E0409721E030E0B90102C0660F771F34
S11309E08A95E2F7CB018095842384BB089598EE21
S11309F0980F983010F5613079F441B390E048973E
S1130A0021E030E0B90102C0660F771F8A95E2F752
S1130A10CB01842B81BB089561110FC041B390E0D9
S1130A20489721E030E0B90102C0660F771F8A952C
S1130A30E2F7CB018095842381BB0895883058F474
S1130A4029B330E0A90102C0559547958A95E2F78C
S1130A50CA018170089598EF980F983070F496B396
S1130A60282F30E028503109892F90E002C0959555
S1130A7087952A95E2F78170089590EF980F983042
S1130A8070F493B3282F30E020513109892F90E07E
S1130A9002C0959587952A95E2F78170089598EE9E
S1130AA0980F983070F490B3282F30E02851310912
S1130AB0892F90E002C0959587952A95E2F7817079
S1130AC0089580E00895413029F4FC012081622BCF
S1130AD060830895411105C0FC0120816095622363
S1130AE060830895413029F4FC012081622B6083E6
S1130AF00895411105C0FC01208160956223608343
S1130B0008951F920F920FB60F9211248F939F9303
S1130B10AF93BF938091A6019091A701A091A801E2
S1130B20B091A9010196A11DB11D8093A6019093D6
S1130B30A701A093A801B093A901BF91AF919F9180
S1130B408F910F900FBE0F901F901895A0E0B0E00A
S1130B50880F991FAA1FBB1F880F991FAA1FBB1FAD
S1130B609C01AD01220F331F441F551F220F331F59
S1130B70441F551F60E072E18AE790E00E94AC08D0
S1130B802150310930BD29B98AB188608AB98AB146
S1130B9080618AB98AB180688AB986E880BD0E947A
S1130BA0D60308958CB95D9BFECF0895CF92DF9252
S1130BB0EF92FF92CF93DF93EC01C12CD12C7601FD
S1130BC007C00E94D2058FEFC81AD80AE80AF80AAB
S1130BD0FE01EC0DFD1D80818111F3CFDF91CF91DA
S1130BE0FF90EF90DF90CF900895CF93DF93EC01C7
S1130BF080E00E94D205FE0101900020E9F7CF01B8
S1130C0001978C1B0E94D205CE010E94D605DF916C
S1130C10CF9108950F931F93CF93DF938C01ECE64C
S1130C20F0E001900020E9F73197EF01CC56D04075
S1130C30FC0101900020E9F73197E81BF90BEC0F58
S1130C40C8E0CE0F80E10E94D2058C2F0E94D2050D
S1130C508CE690E00E94F50584E00E94D20582E0D3
S1130C600E94D2058FEF0E94D2058FEF0E94D20519
S1130C70C8010E94F505DF91CF911F910F9108954E
S1130C80EF92FF920F931F93CF93DF937C018B011D
S1130C90D42FFC0101900020E9F73197E81BF90BF0
S1130CA0E40FC2E0CE0F80E30E94D2058C2F0E9495
S1130CB0D205C7010E94F505C0E007C0F801EC0F9A
S1130CC0F11D80810E94D205CF5FCD17B8F3DF916B
S1130CD0CF911F910F91FF90EF9008950F931F9361
S1130CE0CF938C01FC0101900020E9F73197E81BB8
S1130CF0F90BC5E0CE0F82E80E94D2058C2F0E942A
S1130D00D205809172000E94D205809171000E94E8
S1130D10D2058091710090917200019690937200B7
S1130D2080937100C8010E94F50580E00E94D205FD
S1130D30CF911F910F910895CF93DF93CDB7DEB775
S1130D402D970FB6F894DEBF0FBECDBF8DE0E1E95D
S1130D50F0E0BE016F5F7F4FDB0101900D928A9539
S1130D60E1F792B388E0892782BB88B3805888BBB7
S1130D70FB0101900020E9F73197AF01461B570BA7
S1130D808AE890E00E9440062FEF89E698E121501E
S1130D9080409040E1F700C000002D960FB6F89413
S1130DA0DEBF0FBECDBFDF91CF9108958CE996E0F1
S1130DB00E94A80308950E9447020E94ED020E9427
S1130DC0DD0361E086E00E94AD0361E084E10E94FE
S1130DD0880461E08FE00E94880461E08CE10E9455
S1130DE0880461E08DE10E94880461E08BE10E9447
S1130DF0880461E08FE10E94880461E083E10E943D
S1130E00880461E08EE10E94880460E08AE10E9427
S1130E1088040895CF93DF93EC01BC0183E790E04D
S1130E200E94EE08892BF9F40E94D90261E084E162
S1130E300E94F2034EE950E061E082E00E9459030F
S1130E402FEF8DE399E4215080409040E1F700C0FA
S1130E50000060E084E10E94F2031092AB0181E0A3
S1130E608093AA0141C02091AB0130E040E050E002
S1130E7061E082E00E9497038091AB018230A0F090
S1130E8061E08FE00E94F2032FEF8DE399E421509B
S1130E9080409040E1F700C0000060E08FE00E94D5
S1130EA0F2031092AB0120C00E94D9024CEA50E038
S1130EB061E082E00E9459032FEF84E39CE021501B
S1130EC080409040E1F700C000002091AB012F5F0B
S1130ED02093AB0130E040E050E066E082E00E9405
S1130EE09703CE010E947707DF91CF9108950F9366
S1130EF01F93CF938C011DC00E94D90247EB50E091
S1130F0061E082E00E945903C0E00EC00E946002CA
S1130F10882351F0F801EC0FF11D8083CF5F482F37
S1130F206C2F83E00E945003C43080F3C8010E94F8
S1130F300A078091AA018130F9F6CF911F910F9190
S1130F400895EF92FF920F931F93CF93DF93CDB742
S1130F50DEB7C857D1090FB6F894DEBF0FBECDBFB8
S1130F6048EC50E061E083E00E94590347ED50E013
S1130F7061E084E00E9459038E01035C1F4FCE019F
S1130F8001967C01BC01C8010E941702A80167E018
S1130F9083E00E945903A70166E084E00E9459039C
S1130FA0F70101900020E9F73197AF014E195F096D
S1130FB0B70188EE90E00E9440069FEF29E688E1A1
S1130FC0915020408040E1F700C00000F8010190FA
S1130FD00020E9F73197AF01401B510BB8018EEEA9
S1130FE090E00E9440069FEF29E688E1915020405E
S1130FF08040E1F700C00000C858DF4F0FB6F894F6
S1131000DEBF0FBECDBFDF91CF911F910F91FF9037
S1131010EF900895CF92DF92EF92FF920F931F9378
S1131020CF93DF930E94D90280E090E00E94E40312
S1131030EC0181E090E00E94E4038C019E01A4E6AF
S1131040B0E00E94D4082BEF33E040E050E00E946F
S1131050AC08C4E6D0E0C21BD30B9801A4E6B0E010
S11310600E94D40827E931E040E050E00E94AC0837
S113107069017A01890144EF50E061E081E00E9456
S11310805903BE0180E090E00E94640385E20E945F
S11310901E0340E051E061E082E00E945903C70171
S11310A0B601882799270E94640385E20E941E03E3
S11310B06F9728F461E08CE10E94F20304C060E0C1
S11310C08CE10E94F2030E31110528F461E08DE1F8
S11310D00E94F20304C060E08DE10E94F2030E94CA
S11310E0A107DF91CF911F910F91FF90EF90DF90B7
S11310F0CF90089590E0FC01F097E830F10558F5A1
S1131100E65DFF4F0C94CE0860E08FE10E94F2038D
S1131110089561E08FE10E94F203089561E08EE199
S11311200E94F203089560E08EE10E94F2030895A4
S113113061E083E10E94F203089560E083E10E948C
S1131140F203089561E08DE10E94F203089560E0E6
S11311508DE10E94F2030895A1E21A2EAA1BBB1B83
S1131160FD010DC0AA1FBB1FEE1FFF1FA217B3076F
S1131170E407F50720F0A21BB30BE40BF50B661F85
S1131180771F881F991F1A9469F760957095809549
S113119090959B01AC01BD01CF010895EE0FFF1F97
S11311A00590F491E02D0994A29FB001B39FC00172
S11311B0A39F700D811D1124911DB29F700D811D7F
S11311C01124911D0895FB01DC010D900020E9F725
S11311D0119701900D920020E1F70895FB01DC01C5
S11311E08D91019080190110D9F3990B0895AEE007
S11311F0B0E0EDEFF8E00C94B80B0D891E8986E0A1
S11312008C831A8309838FEF9FE79E838D83AE01BE
S1131210475E5F4F6F89788DCE0101960E94190950
S1131220EF81F885E00FF11F10822E96E4E00C9414
S1131230D40BABE0B0E0EFE1F9E00C94AA0B6C0145
S11312407B018A01FC0117821682838181FFCCC154
S1131250CE0101963C01F6019381F70193FD85913E
S113126093FF81917F01882309F4BAC1853239F44F
S113127093FD859193FF81917F01853229F4B60115
S113128090E00E94100BE7CF912C212C312CFFE130
S1131290F315D8F08B3279F038F4803279F0833258
S11312A0A1F4232D20611DC08D3261F0803369F4D7
S11312B0232D216016C0832D8260382EE32DE46037
S11312C03E2E2AC0F32DF8601DC037FC2DC020ED42
S11312D0280F2A3040F08E32B9F436FC81C1232D18
S11312E02064322E19C036FE06C08AE0989E200D76
S11312F01124922E11C0EAE02E9E200D1124222EDC
S1131300F32DF0623F2E08C08C3621F4832D8068C3
S1131310382E02C0883641F4F70193FD859193FF7E
S113132081917F018111B3CF982F9F7D9554933084
S113133028F40C5F1F4F9FE399830DC0833631F06F
S1131340833771F0833509F059C021C0F8018081D9
S113135089830E5F1F4F88248394912C530113C0FB
S11313602801F2E04F0E511CF801A080B18036FE36
S113137003C0692D70E002C06FEF7FEFC5010E94CA
S1131380050B4C018201F32DFF773F2E16C0280177
S113139022E0420E511CF801A080B18036FE03C049
S11313A0692D70E002C06FEF7FEFC5010E94FA0A59
S11313B04C01F32DF0683F2E820133FC1BC0822DBB
S11313C090E088169906B0F4B60180E290E00E949D
S11313D0100B2A94F4CFF50137FC859137FE8191E7
S11313E05F01B60190E00E94100B21102A9421E0C5
S11313F0821A91088114910471F7E8C0843611F0BF
S1131400893641F5F80137FE07C060817181828118
S113141093810C5F1F4F08C060817181072E000CFF
S1131420880B990B0E5F1F4FF32DFF763F2E97FF0E
S113143009C090958095709561957F4F8F4F9F4F10
S1131440F0683F2E2AE030E0A3010E944C0B882E66
S1131450861845C0853731F4232D2F7EB22E2AE01D
S113146030E025C0932D997FB92E8F36C1F018F442
S1131470883579F0B5C0803719F0883721F0B0C0CD
S1131480E92FE061BE2EB4FE0DC0FB2DF460BF2E2B
S113149009C034FE0AC0292F2660B22E06C028E0F7
S11314A030E005C020E130E002C020E132E0F80184
S11314B0B7FE07C060817181828193810C5F1F4FE9
S11314C006C06081718180E090E00E5F1F4FA30130
S11314D00E944C0B882E8618FB2DFF773F2E36FE7C
S11314E00DC0232D2E7FA22E891458F434FE0BC078
S11314F032FC09C0832D8E7EA82E05C0B82CA32CE7
S113150003C0B82C01C0B92CA4FE0FC0FE01E80D25
S1131510F11D8081803321F49A2D997EA92E09C072
S1131520A2FE06C0B394B39404C08A2D867809F051
S1131530B394A3FC11C0A0FE06C0B21488F4280C16
S1131540922C9B180EC0B21460F4B60180E290E0B5
S11315500E94100BB394F7CFB21418F42B1802C0E6
S1131560982C212CA4FE10C0B60180E390E00E94C8
S1131570100BA2FE17C0A1FC03C088E790E002C0D4
S113158088E590E0B6010CC08A2D867859F0A1FE5A
S113159002C08BE201C080E2A7FC8DE2B60190E0BC
S11315A00E94100B891438F4B60180E390E00E9485
S11315B0100B9A94F7CF8A94F301E80DF11D808102
S11315C0B60190E00E94100B8110F5CF222009F49F
S11315D042CEB60180E290E00E94100B2A94F6CF2E
S11315E0F6018681978102C08FEF9FEF2B96E2E18F
S11315F00C94C60BFC010590615070400110D8F7A3
S1131600809590958E0F9F1F0895FC016150704046
S113161001900110D8F7809590958E0F9F1F089523
S11316200F931F93CF93DF93FB01238121FD03C00D
S11316308FEF9FEF2CC022FF16C046815781248173
S113164035814217530744F4A081B1819D012F5F76
S11316503F4F318320838C93268137812F5F3F4F07
S11316603783268314C08B01EC01FB010084F185D0
S1131670E02D0995892BE1F6D80116968D919C9160
S11316801797019617969C938E931697CE01DF9128
S1131690CF911F910F910895FA01AA27283051F193
S11316A0203181F1E8946F936E7F6E5F7F4F8F4F8F
S11316B09F4FAF4FB1E03ED0B4E03CD0670F781FEE
S11316C0891F9A1FA11D680F791F8A1F911DA11DD3
S11316D06A0F711D811D911DA11D20D009F468940C
S11316E03F912AE0269F11243019305D3193DEF6B4
S11316F0CF010895462F4770405D4193B3E00FD06A
S1131700C9F7F6CF462F4F70405D4A3318F0495D54
S113171031FD4052419302D0A9F7EACFB4E0A69537
S11317209795879577956795BA95C9F70097610559
S1131730710508959B01AC010A2E069457954795AF
S113174037952795BA95C9F7620F731F841F951FA4
S1131750A01D08952F923F924F925F926F927F92B5
S11317608F929F92AF92BF92CF92DF92EF92FF92AD
S11317700F931F93CF93DF93CDB7DEB7CA1BDB0B59
S11317800FB6F894DEBF0FBECDBF09942A883988FE
S113179048885F846E847D848C849B84AA84B98405
S11317A0C884DF80EE80FD800C811B81AA81B98111
S11317B0CE0FD11D0FB6F894DEBF0FBECDBFED0125
S10917C00895F894FFCF28
S11317C63132333435363738392A30234D5154546F
S11317D600010031323334003131313100472F6496
S11317E665766963657300257500472F66697265BA
S11317F600686F6D65206F6E2066697265005061C2
S113180673732061636365707465640057726F6EE9
S113181667205061737300456E746572207061733E
S113182673776F7264203A0048756D69643D2020B1
S11318362020202552480074656D703D202020200C
S113184620204465672E6300472F44485400472FE1
S113185668756D00736F696C2077617465723D00FD
S10D18664C69676874203D200000FF
S9030000FC
